Frame 1: 42 bytes on wire (336 bits), 42 bytes captured (336 bits)
    Encapsulation type: Per-Packet Information header (97)
    Arrival Time: Feb 14, 2013 13:28:38.344619000 EST
    [Time shift for this packet: 0.000000000 seconds]
    Epoch Time: 1360866518.344619000 seconds
    [Time delta from previous captured frame: 0.000000000 seconds]
    [Time delta from previous displayed frame: 0.000000000 seconds]
    [Time since reference or first frame: 0.000000000 seconds]
    Frame Number: 1
    Frame Length: 42 bytes (336 bits)
    Capture Length: 42 bytes (336 bits)
    [Frame is marked: False]
    [Frame is ignored: False]
    [Protocols in frame: ppi:user_dlt:btle:btcommon]
PPI version 0, 24 bytes
    Version: 0
    Flags: 0x00
        .... ...0 = Alignment: Not aligned
        0000 000. = Reserved: 0x00
    Header length: 24
    DLT: 147
    Reserved: 36750c00006209006b36e300e8dcee3c
DLT: 147, Payload: btle (Bluetooth Low Energy Link Layer)
Bluetooth Low Energy Link Layer
    Access Address: 0x8e89bed6
    Packet Header: 0x0900 (PDU Type: ADV_IND, TxAdd=false, RxAdd=false)
        ..00 .... = RFU: 0
        .0.. .... = Randomized Tx Address: False
        0... .... = Reserved: False
        .... 0000 = PDU Type: ADV_IND (0x00)
        00.. .... = RFU: 0
        ..00 1001 = Length: 9
    Advertising Address: TexasIns_6e:dd:e8 (78:c5:e5:6e:dd:e8)
    Advertising Data
        Flags
            Length: 2
            Type: Flags (0x01)
            000. .... = Reserved: 0x00
            ...0 .... = Simultaneous LE and BR/EDR to Same Device Capable (Host): false (0x00)
            .... 0... = Simultaneous LE and BR/EDR to Same Device Capable (Controller): false (0x00)
            .... .1.. = BR/EDR Not Supported: true (0x01)
            .... ..0. = LE General Discoverable Mode: false (0x00)
            .... ...1 = LE Limited Discoverable Mode: true (0x01)
    CRC: 0x633c69
        [Expert Info (Chat/Checksum): Correct CRC]
            [Correct CRC]
            [Severity level: Chat]
            [Group: Checksum]

0000  00 00 18 00 93 00 00 00 36 75 0c 00 00 62 09 00   ........6u...b..
0010  6b 36 e3 00 e8 dc ee 3c d6 be 89 8e 00 09 e8 dd   k6.....<........
0020  6e e5 c5 78 02 01 05 c6 3c 96                     n..x....<.

Frame 2: 42 bytes on wire (336 bits), 42 bytes captured (336 bits)
    Encapsulation type: Per-Packet Information header (97)
    Arrival Time: Feb 14, 2013 13:28:38.454563000 EST
    [Time shift for this packet: 0.000000000 seconds]
    Epoch Time: 1360866518.454563000 seconds
    [Time delta from previous captured frame: 0.109944000 seconds]
    [Time delta from previous displayed frame: 0.109944000 seconds]
    [Time since reference or first frame: 0.109944000 seconds]
    Frame Number: 2
    Frame Length: 42 bytes (336 bits)
    Capture Length: 42 bytes (336 bits)
    [Frame is marked: False]
    [Frame is ignored: False]
    [Protocols in frame: ppi:user_dlt:btle:btcommon]
PPI version 0, 24 bytes
    Version: 0
    Flags: 0x00
        .... ...0 = Alignment: Not aligned
        0000 000. = Reserved: 0x00
    Header length: 24
    DLT: 147
    Reserved: 36750c00006209000600f400e6dbe22e
DLT: 147, Payload: btle (Bluetooth Low Energy Link Layer)
Bluetooth Low Energy Link Layer
    Access Address: 0x8e89bed6
    Packet Header: 0x0900 (PDU Type: ADV_IND, TxAdd=false, RxAdd=false)
        ..00 .... = RFU: 0
        .0.. .... = Randomized Tx Address: False
        0... .... = Reserved: False
        .... 0000 = PDU Type: ADV_IND (0x00)
        00.. .... = RFU: 0
        ..00 1001 = Length: 9
    Advertising Address: TexasIns_6e:dd:e8 (78:c5:e5:6e:dd:e8)
    Advertising Data
        Flags
            Length: 2
            Type: Flags (0x01)
            000. .... = Reserved: 0x00
            ...0 .... = Simultaneous LE and BR/EDR to Same Device Capable (Host): false (0x00)
            .... 0... = Simultaneous LE and BR/EDR to Same Device Capable (Controller): false (0x00)
            .... .1.. = BR/EDR Not Supported: true (0x01)
            .... ..0. = LE General Discoverable Mode: false (0x00)
            .... ...1 = LE Limited Discoverable Mode: true (0x01)
    CRC: 0x633c69
        [Expert Info (Chat/Checksum): Correct CRC]
            [Correct CRC]
            [Severity level: Chat]
            [Group: Checksum]

0000  00 00 18 00 93 00 00 00 36 75 0c 00 00 62 09 00   ........6u...b..
0010  06 00 f4 00 e6 db e2 2e d6 be 89 8e 00 09 e8 dd   ................
0020  6e e5 c5 78 02 01 05 c6 3c 96                     n..x....<.

Frame 3: 42 bytes on wire (336 bits), 42 bytes captured (336 bits)
    Encapsulation type: Per-Packet Information header (97)
    Arrival Time: Feb 14, 2013 13:28:38.561933000 EST
    [Time shift for this packet: 0.000000000 seconds]
    Epoch Time: 1360866518.561933000 seconds
    [Time delta from previous captured frame: 0.107370000 seconds]
    [Time delta from previous displayed frame: 0.107370000 seconds]
    [Time since reference or first frame: 0.217314000 seconds]
    Frame Number: 3
    Frame Length: 42 bytes (336 bits)
    Capture Length: 42 bytes (336 bits)
    [Frame is marked: False]
    [Frame is ignored: False]
    [Protocols in frame: ppi:user_dlt:btle:btcommon]
PPI version 0, 24 bytes
    Version: 0
    Flags: 0x00
        .... ...0 = Alignment: Not aligned
        0000 000. = Reserved: 0x00
    Header length: 24
    DLT: 147
    Reserved: 36750c0000620900e56b0401e8dde233
DLT: 147, Payload: btle (Bluetooth Low Energy Link Layer)
Bluetooth Low Energy Link Layer
    Access Address: 0x8e89bed6
    Packet Header: 0x0900 (PDU Type: ADV_IND, TxAdd=false, RxAdd=false)
        ..00 .... = RFU: 0
        .0.. .... = Randomized Tx Address: False
        0... .... = Reserved: False
        .... 0000 = PDU Type: ADV_IND (0x00)
        00.. .... = RFU: 0
        ..00 1001 = Length: 9
    Advertising Address: TexasIns_6e:dd:e8 (78:c5:e5:6e:dd:e8)
    Advertising Data
        Flags
            Length: 2
            Type: Flags (0x01)
            000. .... = Reserved: 0x00
            ...0 .... = Simultaneous LE and BR/EDR to Same Device Capable (Host): false (0x00)
            .... 0... = Simultaneous LE and BR/EDR to Same Device Capable (Controller): false (0x00)
            .... .1.. = BR/EDR Not Supported: true (0x01)
            .... ..0. = LE General Discoverable Mode: false (0x00)
            .... ...1 = LE Limited Discoverable Mode: true (0x01)
    CRC: 0x633c69
        [Expert Info (Chat/Checksum): Correct CRC]
            [Correct CRC]
            [Severity level: Chat]
            [Group: Checksum]

0000  00 00 18 00 93 00 00 00 36 75 0c 00 00 62 09 00   ........6u...b..
0010  e5 6b 04 01 e8 dd e2 33 d6 be 89 8e 00 09 e8 dd   .k.....3........
0020  6e e5 c5 78 02 01 05 c6 3c 96                     n..x....<.

Frame 4: 42 bytes on wire (336 bits), 42 bytes captured (336 bits)
    Encapsulation type: Per-Packet Information header (97)
    Arrival Time: Feb 14, 2013 13:28:38.668053000 EST
    [Time shift for this packet: 0.000000000 seconds]
    Epoch Time: 1360866518.668053000 seconds
    [Time delta from previous captured frame: 0.106120000 seconds]
    [Time delta from previous displayed frame: 0.106120000 seconds]
    [Time since reference or first frame: 0.323434000 seconds]
    Frame Number: 4
    Frame Length: 42 bytes (336 bits)
    Capture Length: 42 bytes (336 bits)
    [Frame is marked: False]
    [Frame is ignored: False]
    [Protocols in frame: ppi:user_dlt:btle:btcommon]
PPI version 0, 24 bytes
    Version: 0
    Flags: 0x00
        .... ...0 = Alignment: Not aligned
        0000 000. = Reserved: 0x00
    Header length: 24
    DLT: 147
    Reserved: 36750c0000620900718a1401e8dce23d
DLT: 147, Payload: btle (Bluetooth Low Energy Link Layer)
Bluetooth Low Energy Link Layer
    Access Address: 0x8e89bed6
    Packet Header: 0x0900 (PDU Type: ADV_IND, TxAdd=false, RxAdd=false)
        ..00 .... = RFU: 0
        .0.. .... = Randomized Tx Address: False
        0... .... = Reserved: False
        .... 0000 = PDU Type: ADV_IND (0x00)
        00.. .... = RFU: 0
        ..00 1001 = Length: 9
    Advertising Address: TexasIns_6e:dd:e8 (78:c5:e5:6e:dd:e8)
    Advertising Data
        Flags
            Length: 2
            Type: Flags (0x01)
            000. .... = Reserved: 0x00
            ...0 .... = Simultaneous LE and BR/EDR to Same Device Capable (Host): false (0x00)
            .... 0... = Simultaneous LE and BR/EDR to Same Device Capable (Controller): false (0x00)
            .... .1.. = BR/EDR Not Supported: true (0x01)
            .... ..0. = LE General Discoverable Mode: false (0x00)
            .... ...1 = LE Limited Discoverable Mode: true (0x01)
    CRC: 0x633c69
        [Expert Info (Chat/Checksum): Correct CRC]
            [Correct CRC]
            [Severity level: Chat]
            [Group: Checksum]

0000  00 00 18 00 93 00 00 00 36 75 0c 00 00 62 09 00   ........6u...b..
0010  71 8a 14 01 e8 dc e2 3d d6 be 89 8e 00 09 e8 dd   q......=........
0020  6e e5 c5 78 02 01 05 c6 3c 96                     n..x....<.

Frame 5: 42 bytes on wire (336 bits), 42 bytes captured (336 bits)
    Encapsulation type: Per-Packet Information header (97)
    Arrival Time: Feb 14, 2013 13:28:38.773275000 EST
    [Time shift for this packet: 0.000000000 seconds]
    Epoch Time: 1360866518.773275000 seconds
    [Time delta from previous captured frame: 0.105222000 seconds]
    [Time delta from previous displayed frame: 0.105222000 seconds]
    [Time since reference or first frame: 0.428656000 seconds]
    Frame Number: 5
    Frame Length: 42 bytes (336 bits)
    Capture Length: 42 bytes (336 bits)
    [Frame is marked: False]
    [Frame is ignored: False]
    [Protocols in frame: ppi:user_dlt:btle:btcommon]
PPI version 0, 24 bytes
    Version: 0
    Flags: 0x00
        .... ...0 = Alignment: Not aligned
        0000 000. = Reserved: 0x00
    Header length: 24
    DLT: 147
    Reserved: 36750c0000620900d3a72401e5dce22e
DLT: 147, Payload: btle (Bluetooth Low Energy Link Layer)
Bluetooth Low Energy Link Layer
    Access Address: 0x8e89bed6
    Packet Header: 0x0900 (PDU Type: ADV_IND, TxAdd=false, RxAdd=false)
        ..00 .... = RFU: 0
        .0.. .... = Randomized Tx Address: False
        0... .... = Reserved: False
        .... 0000 = PDU Type: ADV_IND (0x00)
        00.. .... = RFU: 0
        ..00 1001 = Length: 9
    Advertising Address: TexasIns_6e:dd:e8 (78:c5:e5:6e:dd:e8)
    Advertising Data
        Flags
            Length: 2
            Type: Flags (0x01)
            000. .... = Reserved: 0x00
            ...0 .... = Simultaneous LE and BR/EDR to Same Device Capable (Host): false (0x00)
            .... 0... = Simultaneous LE and BR/EDR to Same Device Capable (Controller): false (0x00)
            .... .1.. = BR/EDR Not Supported: true (0x01)
            .... ..0. = LE General Discoverable Mode: false (0x00)
            .... ...1 = LE Limited Discoverable Mode: true (0x01)
    CRC: 0x633c69
        [Expert Info (Chat/Checksum): Correct CRC]
            [Correct CRC]
            [Severity level: Chat]
            [Group: Checksum]

0000  00 00 18 00 93 00 00 00 36 75 0c 00 00 62 09 00   ........6u...b..
0010  d3 a7 24 01 e5 dc e2 2e d6 be 89 8e 00 09 e8 dd   ..$.............
0020  6e e5 c5 78 02 01 05 c6 3c 96                     n..x....<.

Frame 6: 42 bytes on wire (336 bits), 42 bytes captured (336 bits)
    Encapsulation type: Per-Packet Information header (97)
    Arrival Time: Feb 14, 2013 13:28:38.879954000 EST
    [Time shift for this packet: 0.000000000 seconds]
    Epoch Time: 1360866518.879954000 seconds
    [Time delta from previous captured frame: 0.106679000 seconds]
    [Time delta from previous displayed frame: 0.106679000 seconds]
    [Time since reference or first frame: 0.535335000 seconds]
    Frame Number: 6
    Frame Length: 42 bytes (336 bits)
    Capture Length: 42 bytes (336 bits)
    [Frame is marked: False]
    [Frame is ignored: False]
    [Protocols in frame: ppi:user_dlt:btle:btcommon]
PPI version 0, 24 bytes
    Version: 0
    Flags: 0x00
        .... ...0 = Alignment: Not aligned
        0000 000. = Reserved: 0x00
    Header length: 24
    DLT: 147
    Reserved: 36750c0000620900bcf33401e6dce22f
DLT: 147, Payload: btle (Bluetooth Low Energy Link Layer)
Bluetooth Low Energy Link Layer
    Access Address: 0x8e89bed6
    Packet Header: 0x0900 (PDU Type: ADV_IND, TxAdd=false, RxAdd=false)
        ..00 .... = RFU: 0
        .0.. .... = Randomized Tx Address: False
        0... .... = Reserved: False
        .... 0000 = PDU Type: ADV_IND (0x00)
        00.. .... = RFU: 0
        ..00 1001 = Length: 9
    Advertising Address: TexasIns_6e:dd:e8 (78:c5:e5:6e:dd:e8)
    Advertising Data
        Flags
            Length: 2
            Type: Flags (0x01)
            000. .... = Reserved: 0x00
            ...0 .... = Simultaneous LE and BR/EDR to Same Device Capable (Host): false (0x00)
            .... 0... = Simultaneous LE and BR/EDR to Same Device Capable (Controller): false (0x00)
            .... .1.. = BR/EDR Not Supported: true (0x01)
            .... ..0. = LE General Discoverable Mode: false (0x00)
            .... ...1 = LE Limited Discoverable Mode: true (0x01)
    CRC: 0x633c69
        [Expert Info (Chat/Checksum): Correct CRC]
            [Correct CRC]
            [Severity level: Chat]
            [Group: Checksum]

0000  00 00 18 00 93 00 00 00 36 75 0c 00 00 62 09 00   ........6u...b..
0010  bc f3 34 01 e6 dc e2 2f d6 be 89 8e 00 09 e8 dd   ..4..../........
0020  6e e5 c5 78 02 01 05 c6 3c 96                     n..x....<.

Frame 7: 42 bytes on wire (336 bits), 42 bytes captured (336 bits)
    Encapsulation type: Per-Packet Information header (97)
    Arrival Time: Feb 14, 2013 13:28:38.988272000 EST
    [Time shift for this packet: 0.000000000 seconds]
    Epoch Time: 1360866518.988272000 seconds
    [Time delta from previous captured frame: 0.108318000 seconds]
    [Time delta from previous displayed frame: 0.108318000 seconds]
    [Time since reference or first frame: 0.643653000 seconds]
    Frame Number: 7
    Frame Length: 42 bytes (336 bits)
    Capture Length: 42 bytes (336 bits)
    [Frame is marked: False]
    [Frame is ignored: False]
    [Protocols in frame: ppi:user_dlt:btle:btcommon]
PPI version 0, 24 bytes
    Version: 0
    Flags: 0x00
        .... ...0 = Alignment: Not aligned
        0000 000. = Reserved: 0x00
    Header length: 24
    DLT: 147
    Reserved: 36750c0000620900b36e4501e5dce23c
DLT: 147, Payload: btle (Bluetooth Low Energy Link Layer)
Bluetooth Low Energy Link Layer
    Access Address: 0x8e89bed6
    Packet Header: 0x0900 (PDU Type: ADV_IND, TxAdd=false, RxAdd=false)
        ..00 .... = RFU: 0
        .0.. .... = Randomized Tx Address: False
        0... .... = Reserved: False
        .... 0000 = PDU Type: ADV_IND (0x00)
        00.. .... = RFU: 0
        ..00 1001 = Length: 9
    Advertising Address: TexasIns_6e:dd:e8 (78:c5:e5:6e:dd:e8)
    Advertising Data
        Flags
            Length: 2
            Type: Flags (0x01)
            000. .... = Reserved: 0x00
            ...0 .... = Simultaneous LE and BR/EDR to Same Device Capable (Host): false (0x00)
            .... 0... = Simultaneous LE and BR/EDR to Same Device Capable (Controller): false (0x00)
            .... .1.. = BR/EDR Not Supported: true (0x01)
            .... ..0. = LE General Discoverable Mode: false (0x00)
            .... ...1 = LE Limited Discoverable Mode: true (0x01)
    CRC: 0x633c69
        [Expert Info (Chat/Checksum): Correct CRC]
            [Correct CRC]
            [Severity level: Chat]
            [Group: Checksum]

0000  00 00 18 00 93 00 00 00 36 75 0c 00 00 62 09 00   ........6u...b..
0010  b3 6e 45 01 e5 dc e2 3c d6 be 89 8e 00 09 e8 dd   .nE....<........
0020  6e e5 c5 78 02 01 05 c6 3c 96                     n..x....<.

Frame 8: 42 bytes on wire (336 bits), 42 bytes captured (336 bits)
    Encapsulation type: Per-Packet Information header (97)
    Arrival Time: Feb 14, 2013 13:28:39.096939000 EST
    [Time shift for this packet: 0.000000000 seconds]
    Epoch Time: 1360866519.096939000 seconds
    [Time delta from previous captured frame: 0.108667000 seconds]
    [Time delta from previous displayed frame: 0.108667000 seconds]
    [Time since reference or first frame: 0.752320000 seconds]
    Frame Number: 8
    Frame Length: 42 bytes (336 bits)
    Capture Length: 42 bytes (336 bits)
    [Frame is marked: False]
    [Frame is ignored: False]
    [Protocols in frame: ppi:user_dlt:btle:btcommon]
PPI version 0, 24 bytes
    Version: 0
    Flags: 0x00
        .... ...0 = Alignment: Not aligned
        0000 000. = Reserved: 0x00
    Header length: 24
    DLT: 147
    Reserved: 36750c0000620900f7195601e5dce233
DLT: 147, Payload: btle (Bluetooth Low Energy Link Layer)
Bluetooth Low Energy Link Layer
    Access Address: 0x8e89bed6
    Packet Header: 0x0900 (PDU Type: ADV_IND, TxAdd=false, RxAdd=false)
        ..00 .... = RFU: 0
        .0.. .... = Randomized Tx Address: False
        0... .... = Reserved: False
        .... 0000 = PDU Type: ADV_IND (0x00)
        00.. .... = RFU: 0
        ..00 1001 = Length: 9
    Advertising Address: TexasIns_6e:dd:e8 (78:c5:e5:6e:dd:e8)
    Advertising Data
        Flags
            Length: 2
            Type: Flags (0x01)
            000. .... = Reserved: 0x00
            ...0 .... = Simultaneous LE and BR/EDR to Same Device Capable (Host): false (0x00)
            .... 0... = Simultaneous LE and BR/EDR to Same Device Capable (Controller): false (0x00)
            .... .1.. = BR/EDR Not Supported: true (0x01)
            .... ..0. = LE General Discoverable Mode: false (0x00)
            .... ...1 = LE Limited Discoverable Mode: true (0x01)
    CRC: 0x633c69
        [Expert Info (Chat/Checksum): Correct CRC]
            [Correct CRC]
            [Severity level: Chat]
            [Group: Checksum]

0000  00 00 18 00 93 00 00 00 36 75 0c 00 00 62 09 00   ........6u...b..
0010  f7 19 56 01 e5 dc e2 33 d6 be 89 8e 00 09 e8 dd   ..V....3........
0020  6e e5 c5 78 02 01 05 c6 3c 96                     n..x....<.

Frame 9: 42 bytes on wire (336 bits), 42 bytes captured (336 bits)
    Encapsulation type: Per-Packet Information header (97)
    Arrival Time: Feb 14, 2013 13:28:39.199996000 EST
    [Time shift for this packet: 0.000000000 seconds]
    Epoch Time: 1360866519.199996000 seconds
    [Time delta from previous captured frame: 0.103057000 seconds]
    [Time delta from previous displayed frame: 0.103057000 seconds]
    [Time since reference or first frame: 0.855377000 seconds]
    Frame Number: 9
    Frame Length: 42 bytes (336 bits)
    Capture Length: 42 bytes (336 bits)
    [Frame is marked: False]
    [Frame is ignored: False]
    [Protocols in frame: ppi:user_dlt:btle:btcommon]
PPI version 0, 24 bytes
    Version: 0
    Flags: 0x00
        .... ...0 = Alignment: Not aligned
        0000 000. = Reserved: 0x00
    Header length: 24
    DLT: 147
    Reserved: 36750c0000620900b2ca6501e6dce12f
DLT: 147, Payload: btle (Bluetooth Low Energy Link Layer)
Bluetooth Low Energy Link Layer
    Access Address: 0x8e89bed6
    Packet Header: 0x0900 (PDU Type: ADV_IND, TxAdd=false, RxAdd=false)
        ..00 .... = RFU: 0
        .0.. .... = Randomized Tx Address: False
        0... .... = Reserved: False
        .... 0000 = PDU Type: ADV_IND (0x00)
        00.. .... = RFU: 0
        ..00 1001 = Length: 9
    Advertising Address: TexasIns_6e:dd:e8 (78:c5:e5:6e:dd:e8)
    Advertising Data
        Flags
            Length: 2
            Type: Flags (0x01)
            000. .... = Reserved: 0x00
            ...0 .... = Simultaneous LE and BR/EDR to Same Device Capable (Host): false (0x00)
            .... 0... = Simultaneous LE and BR/EDR to Same Device Capable (Controller): false (0x00)
            .... .1.. = BR/EDR Not Supported: true (0x01)
            .... ..0. = LE General Discoverable Mode: false (0x00)
            .... ...1 = LE Limited Discoverable Mode: true (0x01)
    CRC: 0x633c69
        [Expert Info (Chat/Checksum): Correct CRC]
            [Correct CRC]
            [Severity level: Chat]
            [Group: Checksum]

0000  00 00 18 00 93 00 00 00 36 75 0c 00 00 62 09 00   ........6u...b..
0010  b2 ca 65 01 e6 dc e1 2f d6 be 89 8e 00 09 e8 dd   ..e..../........
0020  6e e5 c5 78 02 01 05 c6 3c 96                     n..x....<.

Frame 10: 42 bytes on wire (336 bits), 42 bytes captured (336 bits)
    Encapsulation type: Per-Packet Information header (97)
    Arrival Time: Feb 14, 2013 13:28:39.304764000 EST
    [Time shift for this packet: 0.000000000 seconds]
    Epoch Time: 1360866519.304764000 seconds
    [Time delta from previous captured frame: 0.104768000 seconds]
    [Time delta from previous displayed frame: 0.104768000 seconds]
    [Time since reference or first frame: 0.960145000 seconds]
    Frame Number: 10
    Frame Length: 42 bytes (336 bits)
    Capture Length: 42 bytes (336 bits)
    [Frame is marked: False]
    [Frame is ignored: False]
    [Protocols in frame: ppi:user_dlt:btle:btcommon]
PPI version 0, 24 bytes
    Version: 0
    Flags: 0x00
        .... ...0 = Alignment: Not aligned
        0000 000. = Reserved: 0x00
    Header length: 24
    DLT: 147
    Reserved: 36750c0000620900d1c77501e4dbe12f
DLT: 147, Payload: btle (Bluetooth Low Energy Link Layer)
Bluetooth Low Energy Link Layer
    Access Address: 0x8e89bed6
    Packet Header: 0x0900 (PDU Type: ADV_IND, TxAdd=false, RxAdd=false)
        ..00 .... = RFU: 0
        .0.. .... = Randomized Tx Address: False
        0... .... = Reserved: False
        .... 0000 = PDU Type: ADV_IND (0x00)
        00.. .... = RFU: 0
        ..00 1001 = Length: 9
    Advertising Address: TexasIns_6e:dd:e8 (78:c5:e5:6e:dd:e8)
    Advertising Data
        Flags
            Length: 2
            Type: Flags (0x01)
            000. .... = Reserved: 0x00
            ...0 .... = Simultaneous LE and BR/EDR to Same Device Capable (Host): false (0x00)
            .... 0... = Simultaneous LE and BR/EDR to Same Device Capable (Controller): false (0x00)
            .... .1.. = BR/EDR Not Supported: true (0x01)
            .... ..0. = LE General Discoverable Mode: false (0x00)
            .... ...1 = LE Limited Discoverable Mode: true (0x01)
    CRC: 0x633c69
        [Expert Info (Chat/Checksum): Correct CRC]
            [Correct CRC]
            [Severity level: Chat]
            [Group: Checksum]

0000  00 00 18 00 93 00 00 00 36 75 0c 00 00 62 09 00   ........6u...b..
0010  d1 c7 75 01 e4 db e1 2f d6 be 89 8e 00 09 e8 dd   ..u..../........
0020  6e e5 c5 78 02 01 05 c6 3c 96                     n..x....<.

Frame 11: 42 bytes on wire (336 bits), 42 bytes captured (336 bits)
    Encapsulation type: Per-Packet Information header (97)
    Arrival Time: Feb 14, 2013 13:28:39.409489000 EST
    [Time shift for this packet: 0.000000000 seconds]
    Epoch Time: 1360866519.409489000 seconds
    [Time delta from previous captured frame: 0.104725000 seconds]
    [Time delta from previous displayed frame: 0.104725000 seconds]
    [Time since reference or first frame: 1.064870000 seconds]
    Frame Number: 11
    Frame Length: 42 bytes (336 bits)
    Capture Length: 42 bytes (336 bits)
    [Frame is marked: False]
    [Frame is ignored: False]
    [Protocols in frame: ppi:user_dlt:btle:btcommon]
PPI version 0, 24 bytes
    Version: 0
    Flags: 0x00
        .... ...0 = Alignment: Not aligned
        0000 000. = Reserved: 0x00
    Header length: 24
    DLT: 147
    Reserved: 36750c00006209006db68501e7dae13c
DLT: 147, Payload: btle (Bluetooth Low Energy Link Layer)
Bluetooth Low Energy Link Layer
    Access Address: 0x8e89bed6
    Packet Header: 0x0900 (PDU Type: ADV_IND, TxAdd=false, RxAdd=false)
        ..00 .... = RFU: 0
        .0.. .... = Randomized Tx Address: False
        0... .... = Reserved: False
        .... 0000 = PDU Type: ADV_IND (0x00)
        00.. .... = RFU: 0
        ..00 1001 = Length: 9
    Advertising Address: TexasIns_6e:dd:e8 (78:c5:e5:6e:dd:e8)
    Advertising Data
        Flags
            Length: 2
            Type: Flags (0x01)
            000. .... = Reserved: 0x00
            ...0 .... = Simultaneous LE and BR/EDR to Same Device Capable (Host): false (0x00)
            .... 0... = Simultaneous LE and BR/EDR to Same Device Capable (Controller): false (0x00)
            .... .1.. = BR/EDR Not Supported: true (0x01)
            .... ..0. = LE General Discoverable Mode: false (0x00)
            .... ...1 = LE Limited Discoverable Mode: true (0x01)
    CRC: 0x633c69
        [Expert Info (Chat/Checksum): Correct CRC]
            [Correct CRC]
            [Severity level: Chat]
            [Group: Checksum]

0000  00 00 18 00 93 00 00 00 36 75 0c 00 00 62 09 00   ........6u...b..
0010  6d b6 85 01 e7 da e1 3c d6 be 89 8e 00 09 e8 dd   m......<........
0020  6e e5 c5 78 02 01 05 c6 3c 96                     n..x....<.

Frame 12: 42 bytes on wire (336 bits), 42 bytes captured (336 bits)
    Encapsulation type: Per-Packet Information header (97)
    Arrival Time: Feb 14, 2013 13:28:39.511298000 EST
    [Time shift for this packet: 0.000000000 seconds]
    Epoch Time: 1360866519.511298000 seconds
    [Time delta from previous captured frame: 0.101809000 seconds]
    [Time delta from previous displayed frame: 0.101809000 seconds]
    [Time since reference or first frame: 1.166679000 seconds]
    Frame Number: 12
    Frame Length: 42 bytes (336 bits)
    Capture Length: 42 bytes (336 bits)
    [Frame is marked: False]
    [Frame is ignored: False]
    [Protocols in frame: ppi:user_dlt:btle:btcommon]
PPI version 0, 24 bytes
    Version: 0
    Flags: 0x00
        .... ...0 = Alignment: Not aligned
        0000 000. = Reserved: 0x00
    Header length: 24
    DLT: 147
    Reserved: 36750c00006209005e579501eadce235
DLT: 147, Payload: btle (Bluetooth Low Energy Link Layer)
Bluetooth Low Energy Link Layer
    Access Address: 0x8e89bed6
    Packet Header: 0x0900 (PDU Type: ADV_IND, TxAdd=false, RxAdd=false)
        ..00 .... = RFU: 0
        .0.. .... = Randomized Tx Address: False
        0... .... = Reserved: False
        .... 0000 = PDU Type: ADV_IND (0x00)
        00.. .... = RFU: 0
        ..00 1001 = Length: 9
    Advertising Address: TexasIns_6e:dd:e8 (78:c5:e5:6e:dd:e8)
    Advertising Data
        Flags
            Length: 2
            Type: Flags (0x01)
            000. .... = Reserved: 0x00
            ...0 .... = Simultaneous LE and BR/EDR to Same Device Capable (Host): false (0x00)
            .... 0... = Simultaneous LE and BR/EDR to Same Device Capable (Controller): false (0x00)
            .... .1.. = BR/EDR Not Supported: true (0x01)
            .... ..0. = LE General Discoverable Mode: false (0x00)
            .... ...1 = LE Limited Discoverable Mode: true (0x01)
    CRC: 0x633c69
        [Expert Info (Chat/Checksum): Correct CRC]
            [Correct CRC]
            [Severity level: Chat]
            [Group: Checksum]

0000  00 00 18 00 93 00 00 00 36 75 0c 00 00 62 09 00   ........6u...b..
0010  5e 57 95 01 ea dc e2 35 d6 be 89 8e 00 09 e8 dd   ^W.....5........
0020  6e e5 c5 78 02 01 05 c6 3c 96                     n..x....<.

Frame 13: 42 bytes on wire (336 bits), 42 bytes captured (336 bits)
    Encapsulation type: Per-Packet Information header (97)
    Arrival Time: Feb 14, 2013 13:28:39.613561000 EST
    [Time shift for this packet: 0.000000000 seconds]
    Epoch Time: 1360866519.613561000 seconds
    [Time delta from previous captured frame: 0.102263000 seconds]
    [Time delta from previous displayed frame: 0.102263000 seconds]
    [Time since reference or first frame: 1.268942000 seconds]
    Frame Number: 13
    Frame Length: 42 bytes (336 bits)
    Capture Length: 42 bytes (336 bits)
    [Frame is marked: False]
    [Frame is ignored: False]
    [Protocols in frame: ppi:user_dlt:btle:btcommon]
PPI version 0, 24 bytes
    Version: 0
    Flags: 0x00
        .... ...0 = Alignment: Not aligned
        0000 000. = Reserved: 0x00
    Header length: 24
    DLT: 147
    Reserved: 36750c0000620900cee9a401e4dce13c
DLT: 147, Payload: btle (Bluetooth Low Energy Link Layer)
Bluetooth Low Energy Link Layer
    Access Address: 0x8e89bed6
    Packet Header: 0x0900 (PDU Type: ADV_IND, TxAdd=false, RxAdd=false)
        ..00 .... = RFU: 0
        .0.. .... = Randomized Tx Address: False
        0... .... = Reserved: False
        .... 0000 = PDU Type: ADV_IND (0x00)
        00.. .... = RFU: 0
        ..00 1001 = Length: 9
    Advertising Address: TexasIns_6e:dd:e8 (78:c5:e5:6e:dd:e8)
    Advertising Data
        Flags
            Length: 2
            Type: Flags (0x01)
            000. .... = Reserved: 0x00
            ...0 .... = Simultaneous LE and BR/EDR to Same Device Capable (Host): false (0x00)
            .... 0... = Simultaneous LE and BR/EDR to Same Device Capable (Controller): false (0x00)
            .... .1.. = BR/EDR Not Supported: true (0x01)
            .... ..0. = LE General Discoverable Mode: false (0x00)
            .... ...1 = LE Limited Discoverable Mode: true (0x01)
    CRC: 0x633c69
        [Expert Info (Chat/Checksum): Correct CRC]
            [Correct CRC]
            [Severity level: Chat]
            [Group: Checksum]

0000  00 00 18 00 93 00 00 00 36 75 0c 00 00 62 09 00   ........6u...b..
0010  ce e9 a4 01 e4 dc e1 3c d6 be 89 8e 00 09 e8 dd   .......<........
0020  6e e5 c5 78 02 01 05 c6 3c 96                     n..x....<.

Frame 14: 42 bytes on wire (336 bits), 42 bytes captured (336 bits)
    Encapsulation type: Per-Packet Information header (97)
    Arrival Time: Feb 14, 2013 13:28:39.719045000 EST
    [Time shift for this packet: 0.000000000 seconds]
    Epoch Time: 1360866519.719045000 seconds
    [Time delta from previous captured frame: 0.105484000 seconds]
    [Time delta from previous displayed frame: 0.105484000 seconds]
    [Time since reference or first frame: 1.374426000 seconds]
    Frame Number: 14
    Frame Length: 42 bytes (336 bits)
    Capture Length: 42 bytes (336 bits)
    [Frame is marked: False]
    [Frame is ignored: False]
    [Protocols in frame: ppi:user_dlt:btle:btcommon]
PPI version 0, 24 bytes
    Version: 0
    Flags: 0x00
        .... ...0 = Alignment: Not aligned
        0000 000. = Reserved: 0x00
    Header length: 24
    DLT: 147
    Reserved: 36750c0000620900a007b501e8dce136
DLT: 147, Payload: btle (Bluetooth Low Energy Link Layer)
Bluetooth Low Energy Link Layer
    Access Address: 0x8e89bed6
    Packet Header: 0x0900 (PDU Type: ADV_IND, TxAdd=false, RxAdd=false)
        ..00 .... = RFU: 0
        .0.. .... = Randomized Tx Address: False
        0... .... = Reserved: False
        .... 0000 = PDU Type: ADV_IND (0x00)
        00.. .... = RFU: 0
        ..00 1001 = Length: 9
    Advertising Address: TexasIns_6e:dd:e8 (78:c5:e5:6e:dd:e8)
    Advertising Data
        Flags
            Length: 2
            Type: Flags (0x01)
            000. .... = Reserved: 0x00
            ...0 .... = Simultaneous LE and BR/EDR to Same Device Capable (Host): false (0x00)
            .... 0... = Simultaneous LE and BR/EDR to Same Device Capable (Controller): false (0x00)
            .... .1.. = BR/EDR Not Supported: true (0x01)
            .... ..0. = LE General Discoverable Mode: false (0x00)
            .... ...1 = LE Limited Discoverable Mode: true (0x01)
    CRC: 0x633c69
        [Expert Info (Chat/Checksum): Correct CRC]
            [Correct CRC]
            [Severity level: Chat]
            [Group: Checksum]

0000  00 00 18 00 93 00 00 00 36 75 0c 00 00 62 09 00   ........6u...b..
0010  a0 07 b5 01 e8 dc e1 36 d6 be 89 8e 00 09 e8 dd   .......6........
0020  6e e5 c5 78 02 01 05 c6 3c 96                     n..x....<.

Frame 15: 42 bytes on wire (336 bits), 42 bytes captured (336 bits)
    Encapsulation type: Per-Packet Information header (97)
    Arrival Time: Feb 14, 2013 13:28:39.828572000 EST
    [Time shift for this packet: 0.000000000 seconds]
    Epoch Time: 1360866519.828572000 seconds
    [Time delta from previous captured frame: 0.109527000 seconds]
    [Time delta from previous displayed frame: 0.109527000 seconds]
    [Time since reference or first frame: 1.483953000 seconds]
    Frame Number: 15
    Frame Length: 42 bytes (336 bits)
    Capture Length: 42 bytes (336 bits)
    [Frame is marked: False]
    [Frame is ignored: False]
    [Protocols in frame: ppi:user_dlt:btle:btcommon]
PPI version 0, 24 bytes
    Version: 0
    Flags: 0x00
        .... ...0 = Alignment: Not aligned
        0000 000. = Reserved: 0x00
    Header length: 24
    DLT: 147
    Reserved: 36750c000062090072b1c501e8dbe12f
DLT: 147, Payload: btle (Bluetooth Low Energy Link Layer)
Bluetooth Low Energy Link Layer
    Access Address: 0x8e89bed6
    Packet Header: 0x0900 (PDU Type: ADV_IND, TxAdd=false, RxAdd=false)
        ..00 .... = RFU: 0
        .0.. .... = Randomized Tx Address: False
        0... .... = Reserved: False
        .... 0000 = PDU Type: ADV_IND (0x00)
        00.. .... = RFU: 0
        ..00 1001 = Length: 9
    Advertising Address: TexasIns_6e:dd:e8 (78:c5:e5:6e:dd:e8)
    Advertising Data
        Flags
            Length: 2
            Type: Flags (0x01)
            000. .... = Reserved: 0x00
            ...0 .... = Simultaneous LE and BR/EDR to Same Device Capable (Host): false (0x00)
            .... 0... = Simultaneous LE and BR/EDR to Same Device Capable (Controller): false (0x00)
            .... .1.. = BR/EDR Not Supported: true (0x01)
            .... ..0. = LE General Discoverable Mode: false (0x00)
            .... ...1 = LE Limited Discoverable Mode: true (0x01)
    CRC: 0x633c69
        [Expert Info (Chat/Checksum): Correct CRC]
            [Correct CRC]
            [Severity level: Chat]
            [Group: Checksum]

0000  00 00 18 00 93 00 00 00 36 75 0c 00 00 62 09 00   ........6u...b..
0010  72 b1 c5 01 e8 db e1 2f d6 be 89 8e 00 09 e8 dd   r....../........
0020  6e e5 c5 78 02 01 05 c6 3c 96                     n..x....<.

Frame 16: 42 bytes on wire (336 bits), 42 bytes captured (336 bits)
    Encapsulation type: Per-Packet Information header (97)
    Arrival Time: Feb 14, 2013 13:28:39.933238000 EST
    [Time shift for this packet: 0.000000000 seconds]
    Epoch Time: 1360866519.933238000 seconds
    [Time delta from previous captured frame: 0.104666000 seconds]
    [Time delta from previous displayed frame: 0.104666000 seconds]
    [Time since reference or first frame: 1.588619000 seconds]
    Frame Number: 16
    Frame Length: 42 bytes (336 bits)
    Capture Length: 42 bytes (336 bits)
    [Frame is marked: False]
    [Frame is ignored: False]
    [Protocols in frame: ppi:user_dlt:btle:btcommon]
PPI version 0, 24 bytes
    Version: 0
    Flags: 0x00
        .... ...0 = Alignment: Not aligned
        0000 000. = Reserved: 0x00
    Header length: 24
    DLT: 147
    Reserved: 36750c00006209000ba0d501e7dae12f
DLT: 147, Payload: btle (Bluetooth Low Energy Link Layer)
Bluetooth Low Energy Link Layer
    Access Address: 0x8e89bed6
    Packet Header: 0x0900 (PDU Type: ADV_IND, TxAdd=false, RxAdd=false)
        ..00 .... = RFU: 0
        .0.. .... = Randomized Tx Address: False
        0... .... = Reserved: False
        .... 0000 = PDU Type: ADV_IND (0x00)
        00.. .... = RFU: 0
        ..00 1001 = Length: 9
    Advertising Address: TexasIns_6e:dd:e8 (78:c5:e5:6e:dd:e8)
    Advertising Data
        Flags
            Length: 2
            Type: Flags (0x01)
            000. .... = Reserved: 0x00
            ...0 .... = Simultaneous LE and BR/EDR to Same Device Capable (Host): false (0x00)
            .... 0... = Simultaneous LE and BR/EDR to Same Device Capable (Controller): false (0x00)
            .... .1.. = BR/EDR Not Supported: true (0x01)
            .... ..0. = LE General Discoverable Mode: false (0x00)
            .... ...1 = LE Limited Discoverable Mode: true (0x01)
    CRC: 0x633c69
        [Expert Info (Chat/Checksum): Correct CRC]
            [Correct CRC]
            [Severity level: Chat]
            [Group: Checksum]

0000  00 00 18 00 93 00 00 00 36 75 0c 00 00 62 09 00   ........6u...b..
0010  0b a0 d5 01 e7 da e1 2f d6 be 89 8e 00 09 e8 dd   ......./........
0020  6e e5 c5 78 02 01 05 c6 3c 96                     n..x....<.

Frame 17: 42 bytes on wire (336 bits), 42 bytes captured (336 bits)
    Encapsulation type: Per-Packet Information header (97)
    Arrival Time: Feb 14, 2013 13:28:40.036434000 EST
    [Time shift for this packet: 0.000000000 seconds]
    Epoch Time: 1360866520.036434000 seconds
    [Time delta from previous captured frame: 0.103196000 seconds]
    [Time delta from previous displayed frame: 0.103196000 seconds]
    [Time since reference or first frame: 1.691815000 seconds]
    Frame Number: 17
    Frame Length: 42 bytes (336 bits)
    Capture Length: 42 bytes (336 bits)
    [Frame is marked: False]
    [Frame is ignored: False]
    [Protocols in frame: ppi:user_dlt:btle:btcommon]
PPI version 0, 24 bytes
    Version: 0
    Flags: 0x00
        .... ...0 = Alignment: Not aligned
        0000 000. = Reserved: 0x00
    Header length: 24
    DLT: 147
    Reserved: 36750c0000620900856fe501e3dce13d
DLT: 147, Payload: btle (Bluetooth Low Energy Link Layer)
Bluetooth Low Energy Link Layer
    Access Address: 0x8e89bed6
    Packet Header: 0x0900 (PDU Type: ADV_IND, TxAdd=false, RxAdd=false)
        ..00 .... = RFU: 0
        .0.. .... = Randomized Tx Address: False
        0... .... = Reserved: False
        .... 0000 = PDU Type: ADV_IND (0x00)
        00.. .... = RFU: 0
        ..00 1001 = Length: 9
    Advertising Address: TexasIns_6e:dd:e8 (78:c5:e5:6e:dd:e8)
    Advertising Data
        Flags
            Length: 2
            Type: Flags (0x01)
            000. .... = Reserved: 0x00
            ...0 .... = Simultaneous LE and BR/EDR to Same Device Capable (Host): false (0x00)
            .... 0... = Simultaneous LE and BR/EDR to Same Device Capable (Controller): false (0x00)
            .... .1.. = BR/EDR Not Supported: true (0x01)
            .... ..0. = LE General Discoverable Mode: false (0x00)
            .... ...1 = LE Limited Discoverable Mode: true (0x01)
    CRC: 0x633c69
        [Expert Info (Chat/Checksum): Correct CRC]
            [Correct CRC]
            [Severity level: Chat]
            [Group: Checksum]

0000  00 00 18 00 93 00 00 00 36 75 0c 00 00 62 09 00   ........6u...b..
0010  85 6f e5 01 e3 dc e1 3d d6 be 89 8e 00 09 e8 dd   .o.....=........
0020  6e e5 c5 78 02 01 05 c6 3c 96                     n..x....<.

Frame 18: 42 bytes on wire (336 bits), 42 bytes captured (336 bits)
    Encapsulation type: Per-Packet Information header (97)
    Arrival Time: Feb 14, 2013 13:28:40.143424000 EST
    [Time shift for this packet: 0.000000000 seconds]
    Epoch Time: 1360866520.143424000 seconds
    [Time delta from previous captured frame: 0.106990000 seconds]
    [Time delta from previous displayed frame: 0.106990000 seconds]
    [Time since reference or first frame: 1.798805000 seconds]
    Frame Number: 18
    Frame Length: 42 bytes (336 bits)
    Capture Length: 42 bytes (336 bits)
    [Frame is marked: False]
    [Frame is ignored: False]
    [Protocols in frame: ppi:user_dlt:btle:btcommon]
PPI version 0, 24 bytes
    Version: 0
    Flags: 0x00
        .... ...0 = Alignment: Not aligned
        0000 000. = Reserved: 0x00
    Header length: 24
    DLT: 147
    Reserved: 36750c0000620900bebbf501e7dce12f
DLT: 147, Payload: btle (Bluetooth Low Energy Link Layer)
Bluetooth Low Energy Link Layer
    Access Address: 0x8e89bed6
    Packet Header: 0x0900 (PDU Type: ADV_IND, TxAdd=false, RxAdd=false)
        ..00 .... = RFU: 0
        .0.. .... = Randomized Tx Address: False
        0... .... = Reserved: False
        .... 0000 = PDU Type: ADV_IND (0x00)
        00.. .... = RFU: 0
        ..00 1001 = Length: 9
    Advertising Address: TexasIns_6e:dd:e8 (78:c5:e5:6e:dd:e8)
    Advertising Data
        Flags
            Length: 2
            Type: Flags (0x01)
            000. .... = Reserved: 0x00
            ...0 .... = Simultaneous LE and BR/EDR to Same Device Capable (Host): false (0x00)
            .... 0... = Simultaneous LE and BR/EDR to Same Device Capable (Controller): false (0x00)
            .... .1.. = BR/EDR Not Supported: true (0x01)
            .... ..0. = LE General Discoverable Mode: false (0x00)
            .... ...1 = LE Limited Discoverable Mode: true (0x01)
    CRC: 0x633c69
        [Expert Info (Chat/Checksum): Correct CRC]
            [Correct CRC]
            [Severity level: Chat]
            [Group: Checksum]

0000  00 00 18 00 93 00 00 00 36 75 0c 00 00 62 09 00   ........6u...b..
0010  be bb f5 01 e7 dc e1 2f d6 be 89 8e 00 09 e8 dd   ......./........
0020  6e e5 c5 78 02 01 05 c6 3c 96                     n..x....<.

Frame 19: 42 bytes on wire (336 bits), 42 bytes captured (336 bits)
    Encapsulation type: Per-Packet Information header (97)
    Arrival Time: Feb 14, 2013 13:28:40.252403000 EST
    [Time shift for this packet: 0.000000000 seconds]
    Epoch Time: 1360866520.252403000 seconds
    [Time delta from previous captured frame: 0.108979000 seconds]
    [Time delta from previous displayed frame: 0.108979000 seconds]
    [Time since reference or first frame: 1.907784000 seconds]
    Frame Number: 19
    Frame Length: 42 bytes (336 bits)
    Capture Length: 42 bytes (336 bits)
    [Frame is marked: False]
    [Frame is ignored: False]
    [Protocols in frame: ppi:user_dlt:btle:btcommon]
PPI version 0, 24 bytes
    Version: 0
    Flags: 0x00
        .... ...0 = Alignment: Not aligned
        0000 000. = Reserved: 0x00
    Header length: 24
    DLT: 147
    Reserved: 36750c000062090035570602eadce12f
DLT: 147, Payload: btle (Bluetooth Low Energy Link Layer)
Bluetooth Low Energy Link Layer
    Access Address: 0x8e89bed6
    Packet Header: 0x0900 (PDU Type: ADV_IND, TxAdd=false, RxAdd=false)
        ..00 .... = RFU: 0
        .0.. .... = Randomized Tx Address: False
        0... .... = Reserved: False
        .... 0000 = PDU Type: ADV_IND (0x00)
        00.. .... = RFU: 0
        ..00 1001 = Length: 9
    Advertising Address: TexasIns_6e:dd:e8 (78:c5:e5:6e:dd:e8)
    Advertising Data
        Flags
            Length: 2
            Type: Flags (0x01)
            000. .... = Reserved: 0x00
            ...0 .... = Simultaneous LE and BR/EDR to Same Device Capable (Host): false (0x00)
            .... 0... = Simultaneous LE and BR/EDR to Same Device Capable (Controller): false (0x00)
            .... .1.. = BR/EDR Not Supported: true (0x01)
            .... ..0. = LE General Discoverable Mode: false (0x00)
            .... ...1 = LE Limited Discoverable Mode: true (0x01)
    CRC: 0x633c69
        [Expert Info (Chat/Checksum): Correct CRC]
            [Correct CRC]
            [Severity level: Chat]
            [Group: Checksum]

0000  00 00 18 00 93 00 00 00 36 75 0c 00 00 62 09 00   ........6u...b..
0010  35 57 06 02 ea dc e1 2f d6 be 89 8e 00 09 e8 dd   5W...../........
0020  6e e5 c5 78 02 01 05 c6 3c 96                     n..x....<.

Frame 20: 42 bytes on wire (336 bits), 42 bytes captured (336 bits)
    Encapsulation type: Per-Packet Information header (97)
    Arrival Time: Feb 14, 2013 13:28:40.352937000 EST
    [Time shift for this packet: 0.000000000 seconds]
    Epoch Time: 1360866520.352937000 seconds
    [Time delta from previous captured frame: 0.100534000 seconds]
    [Time delta from previous displayed frame: 0.100534000 seconds]
    [Time since reference or first frame: 2.008318000 seconds]
    Frame Number: 20
    Frame Length: 42 bytes (336 bits)
    Capture Length: 42 bytes (336 bits)
    [Frame is marked: False]
    [Frame is ignored: False]
    [Protocols in frame: ppi:user_dlt:btle:btcommon]
PPI version 0, 24 bytes
    Version: 0
    Flags: 0x00
        .... ...0 = Alignment: Not aligned
        0000 000. = Reserved: 0x00
    Header length: 24
    DLT: 147
    Reserved: 36750c0000620900efb81502eedce12e
DLT: 147, Payload: btle (Bluetooth Low Energy Link Layer)
Bluetooth Low Energy Link Layer
    Access Address: 0x8e89bed6
    Packet Header: 0x0900 (PDU Type: ADV_IND, TxAdd=false, RxAdd=false)
        ..00 .... = RFU: 0
        .0.. .... = Randomized Tx Address: False
        0... .... = Reserved: False
        .... 0000 = PDU Type: ADV_IND (0x00)
        00.. .... = RFU: 0
        ..00 1001 = Length: 9
    Advertising Address: TexasIns_6e:dd:e8 (78:c5:e5:6e:dd:e8)
    Advertising Data
        Flags
            Length: 2
            Type: Flags (0x01)
            000. .... = Reserved: 0x00
            ...0 .... = Simultaneous LE and BR/EDR to Same Device Capable (Host): false (0x00)
            .... 0... = Simultaneous LE and BR/EDR to Same Device Capable (Controller): false (0x00)
            .... .1.. = BR/EDR Not Supported: true (0x01)
            .... ..0. = LE General Discoverable Mode: false (0x00)
            .... ...1 = LE Limited Discoverable Mode: true (0x01)
    CRC: 0x633c69
        [Expert Info (Chat/Checksum): Correct CRC]
            [Correct CRC]
            [Severity level: Chat]
            [Group: Checksum]

0000  00 00 18 00 93 00 00 00 36 75 0c 00 00 62 09 00   ........6u...b..
0010  ef b8 15 02 ee dc e1 2e d6 be 89 8e 00 09 e8 dd   ................
0020  6e e5 c5 78 02 01 05 c6 3c 96                     n..x....<.

Frame 21: 42 bytes on wire (336 bits), 42 bytes captured (336 bits)
    Encapsulation type: Per-Packet Information header (97)
    Arrival Time: Feb 14, 2013 13:28:40.461471000 EST
    [Time shift for this packet: 0.000000000 seconds]
    Epoch Time: 1360866520.461471000 seconds
    [Time delta from previous captured frame: 0.108534000 seconds]
    [Time delta from previous displayed frame: 0.108534000 seconds]
    [Time since reference or first frame: 2.116852000 seconds]
    Frame Number: 21
    Frame Length: 42 bytes (336 bits)
    Capture Length: 42 bytes (336 bits)
    [Frame is marked: False]
    [Frame is ignored: False]
    [Protocols in frame: ppi:user_dlt:btle:btcommon]
PPI version 0, 24 bytes
    Version: 0
    Flags: 0x00
        .... ...0 = Alignment: Not aligned
        0000 000. = Reserved: 0x00
    Header length: 24
    DLT: 147
    Reserved: 36750c000062090048532602e7dbe23d
DLT: 147, Payload: btle (Bluetooth Low Energy Link Layer)
Bluetooth Low Energy Link Layer
    Access Address: 0x8e89bed6
    Packet Header: 0x0900 (PDU Type: ADV_IND, TxAdd=false, RxAdd=false)
        ..00 .... = RFU: 0
        .0.. .... = Randomized Tx Address: False
        0... .... = Reserved: False
        .... 0000 = PDU Type: ADV_IND (0x00)
        00.. .... = RFU: 0
        ..00 1001 = Length: 9
    Advertising Address: TexasIns_6e:dd:e8 (78:c5:e5:6e:dd:e8)
    Advertising Data
        Flags
            Length: 2
            Type: Flags (0x01)
            000. .... = Reserved: 0x00
            ...0 .... = Simultaneous LE and BR/EDR to Same Device Capable (Host): false (0x00)
            .... 0... = Simultaneous LE and BR/EDR to Same Device Capable (Controller): false (0x00)
            .... .1.. = BR/EDR Not Supported: true (0x01)
            .... ..0. = LE General Discoverable Mode: false (0x00)
            .... ...1 = LE Limited Discoverable Mode: true (0x01)
    CRC: 0x633c69
        [Expert Info (Chat/Checksum): Correct CRC]
            [Correct CRC]
            [Severity level: Chat]
            [Group: Checksum]

0000  00 00 18 00 93 00 00 00 36 75 0c 00 00 62 09 00   ........6u...b..
0010  48 53 26 02 e7 db e2 3d d6 be 89 8e 00 09 e8 dd   HS&....=........
0020  6e e5 c5 78 02 01 05 c6 3c 96                     n..x....<.

Frame 22: 42 bytes on wire (336 bits), 42 bytes captured (336 bits)
    Encapsulation type: Per-Packet Information header (97)
    Arrival Time: Feb 14, 2013 13:28:40.570455000 EST
    [Time shift for this packet: 0.000000000 seconds]
    Epoch Time: 1360866520.570455000 seconds
    [Time delta from previous captured frame: 0.108984000 seconds]
    [Time delta from previous displayed frame: 0.108984000 seconds]
    [Time since reference or first frame: 2.225836000 seconds]
    Frame Number: 22
    Frame Length: 42 bytes (336 bits)
    Capture Length: 42 bytes (336 bits)
    [Frame is marked: False]
    [Frame is ignored: False]
    [Protocols in frame: ppi:user_dlt:btle:btcommon]
PPI version 0, 24 bytes
    Version: 0
    Flags: 0x00
        .... ...0 = Alignment: Not aligned
        0000 000. = Reserved: 0x00
    Header length: 24
    DLT: 147
    Reserved: 36750c000062090083dd360224cbe22e
DLT: 147, Payload: btle (Bluetooth Low Energy Link Layer)
Bluetooth Low Energy Link Layer
    Access Address: 0x8e89bed6
    Packet Header: 0x0900 (PDU Type: ADV_IND, TxAdd=false, RxAdd=false)
        ..00 .... = RFU: 0
        .0.. .... = Randomized Tx Address: False
        0... .... = Reserved: False
        .... 0000 = PDU Type: ADV_IND (0x00)
        00.. .... = RFU: 0
        ..00 1001 = Length: 9
    Advertising Address: TexasIns_6e:dd:e8 (78:c5:e5:6e:dd:e8)
    Advertising Data
        Flags
            Length: 2
            Type: Flags (0x01)
            000. .... = Reserved: 0x00
            ...0 .... = Simultaneous LE and BR/EDR to Same Device Capable (Host): false (0x00)
            .... 0... = Simultaneous LE and BR/EDR to Same Device Capable (Controller): false (0x00)
            .... .1.. = BR/EDR Not Supported: true (0x01)
            .... ..0. = LE General Discoverable Mode: false (0x00)
            .... ...1 = LE Limited Discoverable Mode: true (0x01)
    CRC: 0x633c69
        [Expert Info (Chat/Checksum): Correct CRC]
            [Correct CRC]
            [Severity level: Chat]
            [Group: Checksum]

0000  00 00 18 00 93 00 00 00 36 75 0c 00 00 62 09 00   ........6u...b..
0010  83 dd 36 02 24 cb e2 2e d6 be 89 8e 00 09 e8 dd   ..6.$...........
0020  6e e5 c5 78 02 01 05 c6 3c 96                     n..x....<.

Frame 23: 42 bytes on wire (336 bits), 42 bytes captured (336 bits)
    Encapsulation type: Per-Packet Information header (97)
    Arrival Time: Feb 14, 2013 13:28:40.677939000 EST
    [Time shift for this packet: 0.000000000 seconds]
    Epoch Time: 1360866520.677939000 seconds
    [Time delta from previous captured frame: 0.107484000 seconds]
    [Time delta from previous displayed frame: 0.107484000 seconds]
    [Time since reference or first frame: 2.333320000 seconds]
    Frame Number: 23
    Frame Length: 42 bytes (336 bits)
    Capture Length: 42 bytes (336 bits)
    [Frame is marked: False]
    [Frame is ignored: False]
    [Protocols in frame: ppi:user_dlt:btle:btcommon]
PPI version 0, 24 bytes
    Version: 0
    Flags: 0x00
        .... ...0 = Alignment: Not aligned
        0000 000. = Reserved: 0x00
    Header length: 24
    DLT: 147
    Reserved: 36750c0000620900eb394702e9dce13c
DLT: 147, Payload: btle (Bluetooth Low Energy Link Layer)
Bluetooth Low Energy Link Layer
    Access Address: 0x8e89bed6
    Packet Header: 0x0900 (PDU Type: ADV_IND, TxAdd=false, RxAdd=false)
        ..00 .... = RFU: 0
        .0.. .... = Randomized Tx Address: False
        0... .... = Reserved: False
        .... 0000 = PDU Type: ADV_IND (0x00)
        00.. .... = RFU: 0
        ..00 1001 = Length: 9
    Advertising Address: TexasIns_6e:dd:e8 (78:c5:e5:6e:dd:e8)
    Advertising Data
        Flags
            Length: 2
            Type: Flags (0x01)
            000. .... = Reserved: 0x00
            ...0 .... = Simultaneous LE and BR/EDR to Same Device Capable (Host): false (0x00)
            .... 0... = Simultaneous LE and BR/EDR to Same Device Capable (Controller): false (0x00)
            .... .1.. = BR/EDR Not Supported: true (0x01)
            .... ..0. = LE General Discoverable Mode: false (0x00)
            .... ...1 = LE Limited Discoverable Mode: true (0x01)
    CRC: 0x633c69
        [Expert Info (Chat/Checksum): Correct CRC]
            [Correct CRC]
            [Severity level: Chat]
            [Group: Checksum]

0000  00 00 18 00 93 00 00 00 36 75 0c 00 00 62 09 00   ........6u...b..
0010  eb 39 47 02 e9 dc e1 3c d6 be 89 8e 00 09 e8 dd   .9G....<........
0020  6e e5 c5 78 02 01 05 c6 3c 96                     n..x....<.

Frame 24: 42 bytes on wire (336 bits), 42 bytes captured (336 bits)
    Encapsulation type: Per-Packet Information header (97)
    Arrival Time: Feb 14, 2013 13:28:40.782623000 EST
    [Time shift for this packet: 0.000000000 seconds]
    Epoch Time: 1360866520.782623000 seconds
    [Time delta from previous captured frame: 0.104684000 seconds]
    [Time delta from previous displayed frame: 0.104684000 seconds]
    [Time since reference or first frame: 2.438004000 seconds]
    Frame Number: 24
    Frame Length: 42 bytes (336 bits)
    Capture Length: 42 bytes (336 bits)
    [Frame is marked: False]
    [Frame is ignored: False]
    [Protocols in frame: ppi:user_dlt:btle:btcommon]
PPI version 0, 24 bytes
    Version: 0
    Flags: 0x00
        .... ...0 = Alignment: Not aligned
        0000 000. = Reserved: 0x00
    Header length: 24
    DLT: 147
    Reserved: 36750c000062090001385702e6dce23c
DLT: 147, Payload: btle (Bluetooth Low Energy Link Layer)
Bluetooth Low Energy Link Layer
    Access Address: 0x8e89bed6
    Packet Header: 0x0900 (PDU Type: ADV_IND, TxAdd=false, RxAdd=false)
        ..00 .... = RFU: 0
        .0.. .... = Randomized Tx Address: False
        0... .... = Reserved: False
        .... 0000 = PDU Type: ADV_IND (0x00)
        00.. .... = RFU: 0
        ..00 1001 = Length: 9
    Advertising Address: TexasIns_6e:dd:e8 (78:c5:e5:6e:dd:e8)
    Advertising Data
        Flags
            Length: 2
            Type: Flags (0x01)
            000. .... = Reserved: 0x00
            ...0 .... = Simultaneous LE and BR/EDR to Same Device Capable (Host): false (0x00)
            .... 0... = Simultaneous LE and BR/EDR to Same Device Capable (Controller): false (0x00)
            .... .1.. = BR/EDR Not Supported: true (0x01)
            .... ..0. = LE General Discoverable Mode: false (0x00)
            .... ...1 = LE Limited Discoverable Mode: true (0x01)
    CRC: 0x633c69
        [Expert Info (Chat/Checksum): Correct CRC]
            [Correct CRC]
            [Severity level: Chat]
            [Group: Checksum]

0000  00 00 18 00 93 00 00 00 36 75 0c 00 00 62 09 00   ........6u...b..
0010  01 38 57 02 e6 dc e2 3c d6 be 89 8e 00 09 e8 dd   .8W....<........
0020  6e e5 c5 78 02 01 05 c6 3c 96                     n..x....<.

Frame 25: 42 bytes on wire (336 bits), 42 bytes captured (336 bits)
    Encapsulation type: Per-Packet Information header (97)
    Arrival Time: Feb 14, 2013 13:28:40.891328000 EST
    [Time shift for this packet: 0.000000000 seconds]
    Epoch Time: 1360866520.891328000 seconds
    [Time delta from previous captured frame: 0.108705000 seconds]
    [Time delta from previous displayed frame: 0.108705000 seconds]
    [Time since reference or first frame: 2.546709000 seconds]
    Frame Number: 25
    Frame Length: 42 bytes (336 bits)
    Capture Length: 42 bytes (336 bits)
    [Frame is marked: False]
    [Frame is ignored: False]
    [Protocols in frame: ppi:user_dlt:btle:btcommon]
PPI version 0, 24 bytes
    Version: 0
    Flags: 0x00
        .... ...0 = Alignment: Not aligned
        0000 000. = Reserved: 0x00
    Header length: 24
    DLT: 147
    Reserved: 36750c0000620900b7e1670212cce13c
DLT: 147, Payload: btle (Bluetooth Low Energy Link Layer)
Bluetooth Low Energy Link Layer
    Access Address: 0x8e89bed6
    Packet Header: 0x0900 (PDU Type: ADV_IND, TxAdd=false, RxAdd=false)
        ..00 .... = RFU: 0
        .0.. .... = Randomized Tx Address: False
        0... .... = Reserved: False
        .... 0000 = PDU Type: ADV_IND (0x00)
        00.. .... = RFU: 0
        ..00 1001 = Length: 9
    Advertising Address: TexasIns_6e:dd:e8 (78:c5:e5:6e:dd:e8)
    Advertising Data
        Flags
            Length: 2
            Type: Flags (0x01)
            000. .... = Reserved: 0x00
            ...0 .... = Simultaneous LE and BR/EDR to Same Device Capable (Host): false (0x00)
            .... 0... = Simultaneous LE and BR/EDR to Same Device Capable (Controller): false (0x00)
            .... .1.. = BR/EDR Not Supported: true (0x01)
            .... ..0. = LE General Discoverable Mode: false (0x00)
            .... ...1 = LE Limited Discoverable Mode: true (0x01)
    CRC: 0x633c69
        [Expert Info (Chat/Checksum): Correct CRC]
            [Correct CRC]
            [Severity level: Chat]
            [Group: Checksum]

0000  00 00 18 00 93 00 00 00 36 75 0c 00 00 62 09 00   ........6u...b..
0010  b7 e1 67 02 12 cc e1 3c d6 be 89 8e 00 09 e8 dd   ..g....<........
0020  6e e5 c5 78 02 01 05 c6 3c 96                     n..x....<.

Frame 26: 42 bytes on wire (336 bits), 42 bytes captured (336 bits)
    Encapsulation type: Per-Packet Information header (97)
    Arrival Time: Feb 14, 2013 13:28:40.994514000 EST
    [Time shift for this packet: 0.000000000 seconds]
    Epoch Time: 1360866520.994514000 seconds
    [Time delta from previous captured frame: 0.103186000 seconds]
    [Time delta from previous displayed frame: 0.103186000 seconds]
    [Time since reference or first frame: 2.649895000 seconds]
    Frame Number: 26
    Frame Length: 42 bytes (336 bits)
    Capture Length: 42 bytes (336 bits)
    [Frame is marked: False]
    [Frame is ignored: False]
    [Protocols in frame: ppi:user_dlt:btle:btcommon]
PPI version 0, 24 bytes
    Version: 0
    Flags: 0x00
        .... ...0 = Alignment: Not aligned
        0000 000. = Reserved: 0x00
    Header length: 24
    DLT: 147
    Reserved: 36750c0000620900f8a17702e8dce12f
DLT: 147, Payload: btle (Bluetooth Low Energy Link Layer)
Bluetooth Low Energy Link Layer
    Access Address: 0x8e89bed6
    Packet Header: 0x0900 (PDU Type: ADV_IND, TxAdd=false, RxAdd=false)
        ..00 .... = RFU: 0
        .0.. .... = Randomized Tx Address: False
        0... .... = Reserved: False
        .... 0000 = PDU Type: ADV_IND (0x00)
        00.. .... = RFU: 0
        ..00 1001 = Length: 9
    Advertising Address: TexasIns_6e:dd:e8 (78:c5:e5:6e:dd:e8)
    Advertising Data
        Flags
            Length: 2
            Type: Flags (0x01)
            000. .... = Reserved: 0x00
            ...0 .... = Simultaneous LE and BR/EDR to Same Device Capable (Host): false (0x00)
            .... 0... = Simultaneous LE and BR/EDR to Same Device Capable (Controller): false (0x00)
            .... .1.. = BR/EDR Not Supported: true (0x01)
            .... ..0. = LE General Discoverable Mode: false (0x00)
            .... ...1 = LE Limited Discoverable Mode: true (0x01)
    CRC: 0x633c69
        [Expert Info (Chat/Checksum): Correct CRC]
            [Correct CRC]
            [Severity level: Chat]
            [Group: Checksum]

0000  00 00 18 00 93 00 00 00 36 75 0c 00 00 62 09 00   ........6u...b..
0010  f8 a1 77 02 e8 dc e1 2f d6 be 89 8e 00 09 e8 dd   ..w..../........
0020  6e e5 c5 78 02 01 05 c6 3c 96                     n..x....<.

Frame 27: 42 bytes on wire (336 bits), 42 bytes captured (336 bits)
    Encapsulation type: Per-Packet Information header (97)
    Arrival Time: Feb 14, 2013 13:28:41.095354000 EST
    [Time shift for this packet: 0.000000000 seconds]
    Epoch Time: 1360866521.095354000 seconds
    [Time delta from previous captured frame: 0.100840000 seconds]
    [Time delta from previous displayed frame: 0.100840000 seconds]
    [Time since reference or first frame: 2.750735000 seconds]
    Frame Number: 27
    Frame Length: 42 bytes (336 bits)
    Capture Length: 42 bytes (336 bits)
    [Frame is marked: False]
    [Frame is ignored: False]
    [Protocols in frame: ppi:user_dlt:btle:btcommon]
PPI version 0, 24 bytes
    Version: 0
    Flags: 0x00
        .... ...0 = Alignment: Not aligned
        0000 000. = Reserved: 0x00
    Header length: 24
    DLT: 147
    Reserved: 36750c00006209002be58602e6dbe23c
DLT: 147, Payload: btle (Bluetooth Low Energy Link Layer)
Bluetooth Low Energy Link Layer
    Access Address: 0x8e89bed6
    Packet Header: 0x0900 (PDU Type: ADV_IND, TxAdd=false, RxAdd=false)
        ..00 .... = RFU: 0
        .0.. .... = Randomized Tx Address: False
        0... .... = Reserved: False
        .... 0000 = PDU Type: ADV_IND (0x00)
        00.. .... = RFU: 0
        ..00 1001 = Length: 9
    Advertising Address: TexasIns_6e:dd:e8 (78:c5:e5:6e:dd:e8)
    Advertising Data
        Flags
            Length: 2
            Type: Flags (0x01)
            000. .... = Reserved: 0x00
            ...0 .... = Simultaneous LE and BR/EDR to Same Device Capable (Host): false (0x00)
            .... 0... = Simultaneous LE and BR/EDR to Same Device Capable (Controller): false (0x00)
            .... .1.. = BR/EDR Not Supported: true (0x01)
            .... ..0. = LE General Discoverable Mode: false (0x00)
            .... ...1 = LE Limited Discoverable Mode: true (0x01)
    CRC: 0x633c69
        [Expert Info (Chat/Checksum): Correct CRC]
            [Correct CRC]
            [Severity level: Chat]
            [Group: Checksum]

0000  00 00 18 00 93 00 00 00 36 75 0c 00 00 62 09 00   ........6u...b..
0010  2b e5 86 02 e6 db e2 3c d6 be 89 8e 00 09 e8 dd   +......<........
0020  6e e5 c5 78 02 01 05 c6 3c 96                     n..x....<.

Frame 28: 42 bytes on wire (336 bits), 42 bytes captured (336 bits)
    Encapsulation type: Per-Packet Information header (97)
    Arrival Time: Feb 14, 2013 13:28:41.204188000 EST
    [Time shift for this packet: 0.000000000 seconds]
    Epoch Time: 1360866521.204188000 seconds
    [Time delta from previous captured frame: 0.108834000 seconds]
    [Time delta from previous displayed frame: 0.108834000 seconds]
    [Time since reference or first frame: 2.859569000 seconds]
    Frame Number: 28
    Frame Length: 42 bytes (336 bits)
    Capture Length: 42 bytes (336 bits)
    [Frame is marked: False]
    [Frame is ignored: False]
    [Protocols in frame: ppi:user_dlt:btle:btcommon]
PPI version 0, 24 bytes
    Version: 0
    Flags: 0x00
        .... ...0 = Alignment: Not aligned
        0000 000. = Reserved: 0x00
    Header length: 24
    DLT: 147
    Reserved: 36750c0000620900ed909702e7cbe12e
DLT: 147, Payload: btle (Bluetooth Low Energy Link Layer)
Bluetooth Low Energy Link Layer
    Access Address: 0x8e89bed6
    Packet Header: 0x0900 (PDU Type: ADV_IND, TxAdd=false, RxAdd=false)
        ..00 .... = RFU: 0
        .0.. .... = Randomized Tx Address: False
        0... .... = Reserved: False
        .... 0000 = PDU Type: ADV_IND (0x00)
        00.. .... = RFU: 0
        ..00 1001 = Length: 9
    Advertising Address: TexasIns_6e:dd:e8 (78:c5:e5:6e:dd:e8)
    Advertising Data
        Flags
            Length: 2
            Type: Flags (0x01)
            000. .... = Reserved: 0x00
            ...0 .... = Simultaneous LE and BR/EDR to Same Device Capable (Host): false (0x00)
            .... 0... = Simultaneous LE and BR/EDR to Same Device Capable (Controller): false (0x00)
            .... .1.. = BR/EDR Not Supported: true (0x01)
            .... ..0. = LE General Discoverable Mode: false (0x00)
            .... ...1 = LE Limited Discoverable Mode: true (0x01)
    CRC: 0x633c69
        [Expert Info (Chat/Checksum): Correct CRC]
            [Correct CRC]
            [Severity level: Chat]
            [Group: Checksum]

0000  00 00 18 00 93 00 00 00 36 75 0c 00 00 62 09 00   ........6u...b..
0010  ed 90 97 02 e7 cb e1 2e d6 be 89 8e 00 09 e8 dd   ................
0020  6e e5 c5 78 02 01 05 c6 3c 96                     n..x....<.

Frame 29: 42 bytes on wire (336 bits), 42 bytes captured (336 bits)
    Encapsulation type: Per-Packet Information header (97)
    Arrival Time: Feb 14, 2013 13:28:41.309011000 EST
    [Time shift for this packet: 0.000000000 seconds]
    Epoch Time: 1360866521.309011000 seconds
    [Time delta from previous captured frame: 0.104823000 seconds]
    [Time delta from previous displayed frame: 0.104823000 seconds]
    [Time since reference or first frame: 2.964392000 seconds]
    Frame Number: 29
    Frame Length: 42 bytes (336 bits)
    Capture Length: 42 bytes (336 bits)
    [Frame is marked: False]
    [Frame is ignored: False]
    [Protocols in frame: ppi:user_dlt:btle:btcommon]
PPI version 0, 24 bytes
    Version: 0
    Flags: 0x00
        .... ...0 = Alignment: Not aligned
        0000 000. = Reserved: 0x00
    Header length: 24
    DLT: 147
    Reserved: 36750c00006209000380a702e4dce13c
DLT: 147, Payload: btle (Bluetooth Low Energy Link Layer)
Bluetooth Low Energy Link Layer
    Access Address: 0x8e89bed6
    Packet Header: 0x0900 (PDU Type: ADV_IND, TxAdd=false, RxAdd=false)
        ..00 .... = RFU: 0
        .0.. .... = Randomized Tx Address: False
        0... .... = Reserved: False
        .... 0000 = PDU Type: ADV_IND (0x00)
        00.. .... = RFU: 0
        ..00 1001 = Length: 9
    Advertising Address: TexasIns_6e:dd:e8 (78:c5:e5:6e:dd:e8)
    Advertising Data
        Flags
            Length: 2
            Type: Flags (0x01)
            000. .... = Reserved: 0x00
            ...0 .... = Simultaneous LE and BR/EDR to Same Device Capable (Host): false (0x00)
            .... 0... = Simultaneous LE and BR/EDR to Same Device Capable (Controller): false (0x00)
            .... .1.. = BR/EDR Not Supported: true (0x01)
            .... ..0. = LE General Discoverable Mode: false (0x00)
            .... ...1 = LE Limited Discoverable Mode: true (0x01)
    CRC: 0x633c69
        [Expert Info (Chat/Checksum): Correct CRC]
            [Correct CRC]
            [Severity level: Chat]
            [Group: Checksum]

0000  00 00 18 00 93 00 00 00 36 75 0c 00 00 62 09 00   ........6u...b..
0010  03 80 a7 02 e4 dc e1 3c d6 be 89 8e 00 09 e8 dd   .......<........
0020  6e e5 c5 78 02 01 05 c6 3c 96                     n..x....<.

Frame 30: 42 bytes on wire (336 bits), 42 bytes captured (336 bits)
    Encapsulation type: Per-Packet Information header (97)
    Arrival Time: Feb 14, 2013 13:28:41.408382000 EST
    [Time shift for this packet: 0.000000000 seconds]
    Epoch Time: 1360866521.408382000 seconds
    [Time delta from previous captured frame: 0.099371000 seconds]
    [Time delta from previous displayed frame: 0.099371000 seconds]
    [Time since reference or first frame: 3.063763000 seconds]
    Frame Number: 30
    Frame Length: 42 bytes (336 bits)
    Capture Length: 42 bytes (336 bits)
    [Frame is marked: False]
    [Frame is ignored: False]
    [Protocols in frame: ppi:user_dlt:btle:btcommon]
PPI version 0, 24 bytes
    Version: 0
    Flags: 0x00
        .... ...0 = Alignment: Not aligned
        0000 000. = Reserved: 0x00
    Header length: 24
    DLT: 147
    Reserved: 36750c000062090008c4b602e5dce22f
DLT: 147, Payload: btle (Bluetooth Low Energy Link Layer)
Bluetooth Low Energy Link Layer
    Access Address: 0x8e89bed6
    Packet Header: 0x0900 (PDU Type: ADV_IND, TxAdd=false, RxAdd=false)
        ..00 .... = RFU: 0
        .0.. .... = Randomized Tx Address: False
        0... .... = Reserved: False
        .... 0000 = PDU Type: ADV_IND (0x00)
        00.. .... = RFU: 0
        ..00 1001 = Length: 9
    Advertising Address: TexasIns_6e:dd:e8 (78:c5:e5:6e:dd:e8)
    Advertising Data
        Flags
            Length: 2
            Type: Flags (0x01)
            000. .... = Reserved: 0x00
            ...0 .... = Simultaneous LE and BR/EDR to Same Device Capable (Host): false (0x00)
            .... 0... = Simultaneous LE and BR/EDR to Same Device Capable (Controller): false (0x00)
            .... .1.. = BR/EDR Not Supported: true (0x01)
            .... ..0. = LE General Discoverable Mode: false (0x00)
            .... ...1 = LE Limited Discoverable Mode: true (0x01)
    CRC: 0x633c69
        [Expert Info (Chat/Checksum): Correct CRC]
            [Correct CRC]
            [Severity level: Chat]
            [Group: Checksum]

0000  00 00 18 00 93 00 00 00 36 75 0c 00 00 62 09 00   ........6u...b..
0010  08 c4 b6 02 e5 dc e2 2f d6 be 89 8e 00 09 e8 dd   ......./........
0020  6e e5 c5 78 02 01 05 c6 3c 96                     n..x....<.

Frame 31: 42 bytes on wire (336 bits), 42 bytes captured (336 bits)
    Encapsulation type: Per-Packet Information header (97)
    Arrival Time: Feb 14, 2013 13:28:41.511908000 EST
    [Time shift for this packet: 0.000000000 seconds]
    Epoch Time: 1360866521.511908000 seconds
    [Time delta from previous captured frame: 0.103526000 seconds]
    [Time delta from previous displayed frame: 0.103526000 seconds]
    [Time since reference or first frame: 3.167289000 seconds]
    Frame Number: 31
    Frame Length: 42 bytes (336 bits)
    Capture Length: 42 bytes (336 bits)
    [Frame is marked: False]
    [Frame is ignored: False]
    [Protocols in frame: ppi:user_dlt:btle:btcommon]
PPI version 0, 24 bytes
    Version: 0
    Flags: 0x00
        .... ...0 = Alignment: Not aligned
        0000 000. = Reserved: 0x00
    Header length: 24
    DLT: 147
    Reserved: 36750c00006209006793c60222cde13c
DLT: 147, Payload: btle (Bluetooth Low Energy Link Layer)
Bluetooth Low Energy Link Layer
    Access Address: 0x8e89bed6
    Packet Header: 0x0900 (PDU Type: ADV_IND, TxAdd=false, RxAdd=false)
        ..00 .... = RFU: 0
        .0.. .... = Randomized Tx Address: False
        0... .... = Reserved: False
        .... 0000 = PDU Type: ADV_IND (0x00)
        00.. .... = RFU: 0
        ..00 1001 = Length: 9
    Advertising Address: TexasIns_6e:dd:e8 (78:c5:e5:6e:dd:e8)
    Advertising Data
        Flags
            Length: 2
            Type: Flags (0x01)
            000. .... = Reserved: 0x00
            ...0 .... = Simultaneous LE and BR/EDR to Same Device Capable (Host): false (0x00)
            .... 0... = Simultaneous LE and BR/EDR to Same Device Capable (Controller): false (0x00)
            .... .1.. = BR/EDR Not Supported: true (0x01)
            .... ..0. = LE General Discoverable Mode: false (0x00)
            .... ...1 = LE Limited Discoverable Mode: true (0x01)
    CRC: 0x633c69
        [Expert Info (Chat/Checksum): Correct CRC]
            [Correct CRC]
            [Severity level: Chat]
            [Group: Checksum]

0000  00 00 18 00 93 00 00 00 36 75 0c 00 00 62 09 00   ........6u...b..
0010  67 93 c6 02 22 cd e1 3c d6 be 89 8e 00 09 e8 dd   g..."..<........
0020  6e e5 c5 78 02 01 05 c6 3c 96                     n..x....<.

Frame 32: 42 bytes on wire (336 bits), 42 bytes captured (336 bits)
    Encapsulation type: Per-Packet Information header (97)
    Arrival Time: Feb 14, 2013 13:28:41.622388000 EST
    [Time shift for this packet: 0.000000000 seconds]
    Epoch Time: 1360866521.622388000 seconds
    [Time delta from previous captured frame: 0.110480000 seconds]
    [Time delta from previous displayed frame: 0.110480000 seconds]
    [Time since reference or first frame: 3.277769000 seconds]
    Frame Number: 32
    Frame Length: 42 bytes (336 bits)
    Capture Length: 42 bytes (336 bits)
    [Frame is marked: False]
    [Frame is ignored: False]
    [Protocols in frame: ppi:user_dlt:btle:btcommon]
PPI version 0, 24 bytes
    Version: 0
    Flags: 0x00
        .... ...0 = Alignment: Not aligned
        0000 000. = Reserved: 0x00
    Header length: 24
    DLT: 147
    Reserved: 36750c0000620900275dd702e9dae13b
DLT: 147, Payload: btle (Bluetooth Low Energy Link Layer)
Bluetooth Low Energy Link Layer
    Access Address: 0x8e89bed6
    Packet Header: 0x0900 (PDU Type: ADV_IND, TxAdd=false, RxAdd=false)
        ..00 .... = RFU: 0
        .0.. .... = Randomized Tx Address: False
        0... .... = Reserved: False
        .... 0000 = PDU Type: ADV_IND (0x00)
        00.. .... = RFU: 0
        ..00 1001 = Length: 9
    Advertising Address: TexasIns_6e:dd:e8 (78:c5:e5:6e:dd:e8)
    Advertising Data
        Flags
            Length: 2
            Type: Flags (0x01)
            000. .... = Reserved: 0x00
            ...0 .... = Simultaneous LE and BR/EDR to Same Device Capable (Host): false (0x00)
            .... 0... = Simultaneous LE and BR/EDR to Same Device Capable (Controller): false (0x00)
            .... .1.. = BR/EDR Not Supported: true (0x01)
            .... ..0. = LE General Discoverable Mode: false (0x00)
            .... ...1 = LE Limited Discoverable Mode: true (0x01)
    CRC: 0x633c69
        [Expert Info (Chat/Checksum): Correct CRC]
            [Correct CRC]
            [Severity level: Chat]
            [Group: Checksum]

0000  00 00 18 00 93 00 00 00 36 75 0c 00 00 62 09 00   ........6u...b..
0010  27 5d d7 02 e9 da e1 3b d6 be 89 8e 00 09 e8 dd   '].....;........
0020  6e e5 c5 78 02 01 05 c6 3c 96                     n..x....<.

Frame 33: 42 bytes on wire (336 bits), 42 bytes captured (336 bits)
    Encapsulation type: Per-Packet Information header (97)
    Arrival Time: Feb 14, 2013 13:28:41.840789000 EST
    [Time shift for this packet: 0.000000000 seconds]
    Epoch Time: 1360866521.840789000 seconds
    [Time delta from previous captured frame: 0.218401000 seconds]
    [Time delta from previous displayed frame: 0.218401000 seconds]
    [Time since reference or first frame: 3.496170000 seconds]
    Frame Number: 33
    Frame Length: 42 bytes (336 bits)
    Capture Length: 42 bytes (336 bits)
    [Frame is marked: False]
    [Frame is ignored: False]
    [Protocols in frame: ppi:user_dlt:btle:btcommon]
PPI version 0, 24 bytes
    Version: 0
    Flags: 0x00
        .... ...0 = Alignment: Not aligned
        0000 000. = Reserved: 0x00
    Header length: 24
    DLT: 147
    Reserved: 36750c00006209001dc2f802e6dbe22e
DLT: 147, Payload: btle (Bluetooth Low Energy Link Layer)
Bluetooth Low Energy Link Layer
    Access Address: 0x8e89bed6
    Packet Header: 0x0900 (PDU Type: ADV_IND, TxAdd=false, RxAdd=false)
        ..00 .... = RFU: 0
        .0.. .... = Randomized Tx Address: False
        0... .... = Reserved: False
        .... 0000 = PDU Type: ADV_IND (0x00)
        00.. .... = RFU: 0
        ..00 1001 = Length: 9
    Advertising Address: TexasIns_6e:dd:e8 (78:c5:e5:6e:dd:e8)
    Advertising Data
        Flags
            Length: 2
            Type: Flags (0x01)
            000. .... = Reserved: 0x00
            ...0 .... = Simultaneous LE and BR/EDR to Same Device Capable (Host): false (0x00)
            .... 0... = Simultaneous LE and BR/EDR to Same Device Capable (Controller): false (0x00)
            .... .1.. = BR/EDR Not Supported: true (0x01)
            .... ..0. = LE General Discoverable Mode: false (0x00)
            .... ...1 = LE Limited Discoverable Mode: true (0x01)
    CRC: 0x633c69
        [Expert Info (Chat/Checksum): Correct CRC]
            [Correct CRC]
            [Severity level: Chat]
            [Group: Checksum]

0000  00 00 18 00 93 00 00 00 36 75 0c 00 00 62 09 00   ........6u...b..
0010  1d c2 f8 02 e6 db e2 2e d6 be 89 8e 00 09 e8 dd   ................
0020  6e e5 c5 78 02 01 05 c6 3c 96                     n..x....<.

Frame 34: 42 bytes on wire (336 bits), 42 bytes captured (336 bits)
    Encapsulation type: Per-Packet Information header (97)
    Arrival Time: Feb 14, 2013 13:28:41.943849000 EST
    [Time shift for this packet: 0.000000000 seconds]
    Epoch Time: 1360866521.943849000 seconds
    [Time delta from previous captured frame: 0.103060000 seconds]
    [Time delta from previous displayed frame: 0.103060000 seconds]
    [Time since reference or first frame: 3.599230000 seconds]
    Frame Number: 34
    Frame Length: 42 bytes (336 bits)
    Capture Length: 42 bytes (336 bits)
    [Frame is marked: False]
    [Frame is ignored: False]
    [Protocols in frame: ppi:user_dlt:btle:btcommon]
PPI version 0, 24 bytes
    Version: 0
    Flags: 0x00
        .... ...0 = Alignment: Not aligned
        0000 000. = Reserved: 0x00
    Header length: 24
    DLT: 147
    Reserved: 36750c000062090071820803e3dce130
DLT: 147, Payload: btle (Bluetooth Low Energy Link Layer)
Bluetooth Low Energy Link Layer
    Access Address: 0x8e89bed6
    Packet Header: 0x0900 (PDU Type: ADV_IND, TxAdd=false, RxAdd=false)
        ..00 .... = RFU: 0
        .0.. .... = Randomized Tx Address: False
        0... .... = Reserved: False
        .... 0000 = PDU Type: ADV_IND (0x00)
        00.. .... = RFU: 0
        ..00 1001 = Length: 9
    Advertising Address: TexasIns_6e:dd:e8 (78:c5:e5:6e:dd:e8)
    Advertising Data
        Flags
            Length: 2
            Type: Flags (0x01)
            000. .... = Reserved: 0x00
            ...0 .... = Simultaneous LE and BR/EDR to Same Device Capable (Host): false (0x00)
            .... 0... = Simultaneous LE and BR/EDR to Same Device Capable (Controller): false (0x00)
            .... .1.. = BR/EDR Not Supported: true (0x01)
            .... ..0. = LE General Discoverable Mode: false (0x00)
            .... ...1 = LE Limited Discoverable Mode: true (0x01)
    CRC: 0x633c69
        [Expert Info (Chat/Checksum): Correct CRC]
            [Correct CRC]
            [Severity level: Chat]
            [Group: Checksum]

0000  00 00 18 00 93 00 00 00 36 75 0c 00 00 62 09 00   ........6u...b..
0010  71 82 08 03 e3 dc e1 30 d6 be 89 8e 00 09 e8 dd   q......0........
0020  6e e5 c5 78 02 01 05 c6 3c 96                     n..x....<.

Frame 35: 42 bytes on wire (336 bits), 42 bytes captured (336 bits)
    Encapsulation type: Per-Packet Information header (97)
    Arrival Time: Feb 14, 2013 13:28:42.047904000 EST
    [Time shift for this packet: 0.000000000 seconds]
    Epoch Time: 1360866522.047904000 seconds
    [Time delta from previous captured frame: 0.104055000 seconds]
    [Time delta from previous displayed frame: 0.104055000 seconds]
    [Time since reference or first frame: 3.703285000 seconds]
    Frame Number: 35
    Frame Length: 42 bytes (336 bits)
    Capture Length: 42 bytes (336 bits)
    [Frame is marked: False]
    [Frame is ignored: False]
    [Protocols in frame: ppi:user_dlt:btle:btcommon]
PPI version 0, 24 bytes
    Version: 0
    Flags: 0x00
        .... ...0 = Alignment: Not aligned
        0000 000. = Reserved: 0x00
    Header length: 24
    DLT: 147
    Reserved: 36750c000062090082511803eadce12e
DLT: 147, Payload: btle (Bluetooth Low Energy Link Layer)
Bluetooth Low Energy Link Layer
    Access Address: 0x8e89bed6
    Packet Header: 0x0900 (PDU Type: ADV_IND, TxAdd=false, RxAdd=false)
        ..00 .... = RFU: 0
        .0.. .... = Randomized Tx Address: False
        0... .... = Reserved: False
        .... 0000 = PDU Type: ADV_IND (0x00)
        00.. .... = RFU: 0
        ..00 1001 = Length: 9
    Advertising Address: TexasIns_6e:dd:e8 (78:c5:e5:6e:dd:e8)
    Advertising Data
        Flags
            Length: 2
            Type: Flags (0x01)
            000. .... = Reserved: 0x00
            ...0 .... = Simultaneous LE and BR/EDR to Same Device Capable (Host): false (0x00)
            .... 0... = Simultaneous LE and BR/EDR to Same Device Capable (Controller): false (0x00)
            .... .1.. = BR/EDR Not Supported: true (0x01)
            .... ..0. = LE General Discoverable Mode: false (0x00)
            .... ...1 = LE Limited Discoverable Mode: true (0x01)
    CRC: 0x633c69
        [Expert Info (Chat/Checksum): Correct CRC]
            [Correct CRC]
            [Severity level: Chat]
            [Group: Checksum]

0000  00 00 18 00 93 00 00 00 36 75 0c 00 00 62 09 00   ........6u...b..
0010  82 51 18 03 ea dc e1 2e d6 be 89 8e 00 09 e8 dd   .Q..............
0020  6e e5 c5 78 02 01 05 c6 3c 96                     n..x....<.

Frame 36: 42 bytes on wire (336 bits), 42 bytes captured (336 bits)
    Encapsulation type: Per-Packet Information header (97)
    Arrival Time: Feb 14, 2013 13:28:42.155846000 EST
    [Time shift for this packet: 0.000000000 seconds]
    Epoch Time: 1360866522.155846000 seconds
    [Time delta from previous captured frame: 0.107942000 seconds]
    [Time delta from previous displayed frame: 0.107942000 seconds]
    [Time since reference or first frame: 3.811227000 seconds]
    Frame Number: 36
    Frame Length: 42 bytes (336 bits)
    Capture Length: 42 bytes (336 bits)
    [Frame is marked: False]
    [Frame is ignored: False]
    [Protocols in frame: ppi:user_dlt:btle:btcommon]
PPI version 0, 24 bytes
    Version: 0
    Flags: 0x00
        .... ...0 = Alignment: Not aligned
        0000 000. = Reserved: 0x00
    Header length: 24
    DLT: 147
    Reserved: 36750c00006209000acc280324cee138
DLT: 147, Payload: btle (Bluetooth Low Energy Link Layer)
Bluetooth Low Energy Link Layer
    Access Address: 0x8e89bed6
    Packet Header: 0x0900 (PDU Type: ADV_IND, TxAdd=false, RxAdd=false)
        ..00 .... = RFU: 0
        .0.. .... = Randomized Tx Address: False
        0... .... = Reserved: False
        .... 0000 = PDU Type: ADV_IND (0x00)
        00.. .... = RFU: 0
        ..00 1001 = Length: 9
    Advertising Address: TexasIns_6e:dd:e8 (78:c5:e5:6e:dd:e8)
    Advertising Data
        Flags
            Length: 2
            Type: Flags (0x01)
            000. .... = Reserved: 0x00
            ...0 .... = Simultaneous LE and BR/EDR to Same Device Capable (Host): false (0x00)
            .... 0... = Simultaneous LE and BR/EDR to Same Device Capable (Controller): false (0x00)
            .... .1.. = BR/EDR Not Supported: true (0x01)
            .... ..0. = LE General Discoverable Mode: false (0x00)
            .... ...1 = LE Limited Discoverable Mode: true (0x01)
    CRC: 0x633c69
        [Expert Info (Chat/Checksum): Correct CRC]
            [Correct CRC]
            [Severity level: Chat]
            [Group: Checksum]

0000  00 00 18 00 93 00 00 00 36 75 0c 00 00 62 09 00   ........6u...b..
0010  0a cc 28 03 24 ce e1 38 d6 be 89 8e 00 09 e8 dd   ..(.$..8........
0020  6e e5 c5 78 02 01 05 c6 3c 96                     n..x....<.

Frame 37: 42 bytes on wire (336 bits), 42 bytes captured (336 bits)
    Encapsulation type: Per-Packet Information header (97)
    Arrival Time: Feb 14, 2013 13:28:42.258758000 EST
    [Time shift for this packet: 0.000000000 seconds]
    Epoch Time: 1360866522.258758000 seconds
    [Time delta from previous captured frame: 0.102912000 seconds]
    [Time delta from previous displayed frame: 0.102912000 seconds]
    [Time since reference or first frame: 3.914139000 seconds]
    Frame Number: 37
    Frame Length: 42 bytes (336 bits)
    Capture Length: 42 bytes (336 bits)
    [Frame is marked: False]
    [Frame is ignored: False]
    [Protocols in frame: ppi:user_dlt:btle:btcommon]
PPI version 0, 24 bytes
    Version: 0
    Flags: 0x00
        .... ...0 = Alignment: Not aligned
        0000 000. = Reserved: 0x00
    Header length: 24
    DLT: 147
    Reserved: 36750c0000620900f98a3803e7dbe12e
DLT: 147, Payload: btle (Bluetooth Low Energy Link Layer)
Bluetooth Low Energy Link Layer
    Access Address: 0x8e89bed6
    Packet Header: 0x0900 (PDU Type: ADV_IND, TxAdd=false, RxAdd=false)
        ..00 .... = RFU: 0
        .0.. .... = Randomized Tx Address: False
        0... .... = Reserved: False
        .... 0000 = PDU Type: ADV_IND (0x00)
        00.. .... = RFU: 0
        ..00 1001 = Length: 9
    Advertising Address: TexasIns_6e:dd:e8 (78:c5:e5:6e:dd:e8)
    Advertising Data
        Flags
            Length: 2
            Type: Flags (0x01)
            000. .... = Reserved: 0x00
            ...0 .... = Simultaneous LE and BR/EDR to Same Device Capable (Host): false (0x00)
            .... 0... = Simultaneous LE and BR/EDR to Same Device Capable (Controller): false (0x00)
            .... .1.. = BR/EDR Not Supported: true (0x01)
            .... ..0. = LE General Discoverable Mode: false (0x00)
            .... ...1 = LE Limited Discoverable Mode: true (0x01)
    CRC: 0x633c69
        [Expert Info (Chat/Checksum): Correct CRC]
            [Correct CRC]
            [Severity level: Chat]
            [Group: Checksum]

0000  00 00 18 00 93 00 00 00 36 75 0c 00 00 62 09 00   ........6u...b..
0010  f9 8a 38 03 e7 db e1 2e d6 be 89 8e 00 09 e8 dd   ..8.............
0020  6e e5 c5 78 02 01 05 c6 3c 96                     n..x....<.

Frame 38: 42 bytes on wire (336 bits), 42 bytes captured (336 bits)
    Encapsulation type: Per-Packet Information header (97)
    Arrival Time: Feb 14, 2013 13:28:42.359307000 EST
    [Time shift for this packet: 0.000000000 seconds]
    Epoch Time: 1360866522.359307000 seconds
    [Time delta from previous captured frame: 0.100549000 seconds]
    [Time delta from previous displayed frame: 0.100549000 seconds]
    [Time since reference or first frame: 4.014688000 seconds]
    Frame Number: 38
    Frame Length: 42 bytes (336 bits)
    Capture Length: 42 bytes (336 bits)
    [Frame is marked: False]
    [Frame is ignored: False]
    [Protocols in frame: ppi:user_dlt:btle:btcommon]
PPI version 0, 24 bytes
    Version: 0
    Flags: 0x00
        .... ...0 = Alignment: Not aligned
        0000 000. = Reserved: 0x00
    Header length: 24
    DLT: 147
    Reserved: 36750c0000620900fbce4703e6dce22f
DLT: 147, Payload: btle (Bluetooth Low Energy Link Layer)
Bluetooth Low Energy Link Layer
    Access Address: 0x8e89bed6
    Packet Header: 0x0900 (PDU Type: ADV_IND, TxAdd=false, RxAdd=false)
        ..00 .... = RFU: 0
        .0.. .... = Randomized Tx Address: False
        0... .... = Reserved: False
        .... 0000 = PDU Type: ADV_IND (0x00)
        00.. .... = RFU: 0
        ..00 1001 = Length: 9
    Advertising Address: TexasIns_6e:dd:e8 (78:c5:e5:6e:dd:e8)
    Advertising Data
        Flags
            Length: 2
            Type: Flags (0x01)
            000. .... = Reserved: 0x00
            ...0 .... = Simultaneous LE and BR/EDR to Same Device Capable (Host): false (0x00)
            .... 0... = Simultaneous LE and BR/EDR to Same Device Capable (Controller): false (0x00)
            .... .1.. = BR/EDR Not Supported: true (0x01)
            .... ..0. = LE General Discoverable Mode: false (0x00)
            .... ...1 = LE Limited Discoverable Mode: true (0x01)
    CRC: 0x633c69
        [Expert Info (Chat/Checksum): Correct CRC]
            [Correct CRC]
            [Severity level: Chat]
            [Group: Checksum]

0000  00 00 18 00 93 00 00 00 36 75 0c 00 00 62 09 00   ........6u...b..
0010  fb ce 47 03 e6 dc e2 2f d6 be 89 8e 00 09 e8 dd   ..G..../........
0020  6e e5 c5 78 02 01 05 c6 3c 96                     n..x....<.

Frame 39: 42 bytes on wire (336 bits), 42 bytes captured (336 bits)
    Encapsulation type: Per-Packet Information header (97)
    Arrival Time: Feb 14, 2013 13:28:42.465034000 EST
    [Time shift for this packet: 0.000000000 seconds]
    Epoch Time: 1360866522.465034000 seconds
    [Time delta from previous captured frame: 0.105727000 seconds]
    [Time delta from previous displayed frame: 0.105727000 seconds]
    [Time since reference or first frame: 4.120415000 seconds]
    Frame Number: 39
    Frame Length: 42 bytes (336 bits)
    Capture Length: 42 bytes (336 bits)
    [Frame is marked: False]
    [Frame is ignored: False]
    [Protocols in frame: ppi:user_dlt:btle:btcommon]
PPI version 0, 24 bytes
    Version: 0
    Flags: 0x00
        .... ...0 = Alignment: Not aligned
        0000 000. = Reserved: 0x00
    Header length: 24
    DLT: 147
    Reserved: 36750c00006209002a0c5803e6dce13d
DLT: 147, Payload: btle (Bluetooth Low Energy Link Layer)
Bluetooth Low Energy Link Layer
    Access Address: 0x8e89bed6
    Packet Header: 0x0900 (PDU Type: ADV_IND, TxAdd=false, RxAdd=false)
        ..00 .... = RFU: 0
        .0.. .... = Randomized Tx Address: False
        0... .... = Reserved: False
        .... 0000 = PDU Type: ADV_IND (0x00)
        00.. .... = RFU: 0
        ..00 1001 = Length: 9
    Advertising Address: TexasIns_6e:dd:e8 (78:c5:e5:6e:dd:e8)
    Advertising Data
        Flags
            Length: 2
            Type: Flags (0x01)
            000. .... = Reserved: 0x00
            ...0 .... = Simultaneous LE and BR/EDR to Same Device Capable (Host): false (0x00)
            .... 0... = Simultaneous LE and BR/EDR to Same Device Capable (Controller): false (0x00)
            .... .1.. = BR/EDR Not Supported: true (0x01)
            .... ..0. = LE General Discoverable Mode: false (0x00)
            .... ...1 = LE Limited Discoverable Mode: true (0x01)
    CRC: 0x633c69
        [Expert Info (Chat/Checksum): Correct CRC]
            [Correct CRC]
            [Severity level: Chat]
            [Group: Checksum]

0000  00 00 18 00 93 00 00 00 36 75 0c 00 00 62 09 00   ........6u...b..
0010  2a 0c 58 03 e6 dc e1 3d d6 be 89 8e 00 09 e8 dd   *.X....=........
0020  6e e5 c5 78 02 01 05 c6 3c 96                     n..x....<.

Frame 40: 42 bytes on wire (336 bits), 42 bytes captured (336 bits)
    Encapsulation type: Per-Packet Information header (97)
    Arrival Time: Feb 14, 2013 13:28:42.572433000 EST
    [Time shift for this packet: 0.000000000 seconds]
    Epoch Time: 1360866522.572433000 seconds
    [Time delta from previous captured frame: 0.107399000 seconds]
    [Time delta from previous displayed frame: 0.107399000 seconds]
    [Time since reference or first frame: 4.227814000 seconds]
    Frame Number: 40
    Frame Length: 42 bytes (336 bits)
    Capture Length: 42 bytes (336 bits)
    [Frame is marked: False]
    [Frame is ignored: False]
    [Protocols in frame: ppi:user_dlt:btle:btcommon]
PPI version 0, 24 bytes
    Version: 0
    Flags: 0x00
        .... ...0 = Alignment: Not aligned
        0000 000. = Reserved: 0x00
    Header length: 24
    DLT: 147
    Reserved: 36750c0000620900b5686803e4cde13c
DLT: 147, Payload: btle (Bluetooth Low Energy Link Layer)
Bluetooth Low Energy Link Layer
    Access Address: 0x8e89bed6
    Packet Header: 0x0900 (PDU Type: ADV_IND, TxAdd=false, RxAdd=false)
        ..00 .... = RFU: 0
        .0.. .... = Randomized Tx Address: False
        0... .... = Reserved: False
        .... 0000 = PDU Type: ADV_IND (0x00)
        00.. .... = RFU: 0
        ..00 1001 = Length: 9
    Advertising Address: TexasIns_6e:dd:e8 (78:c5:e5:6e:dd:e8)
    Advertising Data
        Flags
            Length: 2
            Type: Flags (0x01)
            000. .... = Reserved: 0x00
            ...0 .... = Simultaneous LE and BR/EDR to Same Device Capable (Host): false (0x00)
            .... 0... = Simultaneous LE and BR/EDR to Same Device Capable (Controller): false (0x00)
            .... .1.. = BR/EDR Not Supported: true (0x01)
            .... ..0. = LE General Discoverable Mode: false (0x00)
            .... ...1 = LE Limited Discoverable Mode: true (0x01)
    CRC: 0x633c69
        [Expert Info (Chat/Checksum): Correct CRC]
            [Correct CRC]
            [Severity level: Chat]
            [Group: Checksum]

0000  00 00 18 00 93 00 00 00 36 75 0c 00 00 62 09 00   ........6u...b..
0010  b5 68 68 03 e4 cd e1 3c d6 be 89 8e 00 09 e8 dd   .hh....<........
0020  6e e5 c5 78 02 01 05 c6 3c 96                     n..x....<.

Frame 41: 42 bytes on wire (336 bits), 42 bytes captured (336 bits)
    Encapsulation type: Per-Packet Information header (97)
    Arrival Time: Feb 14, 2013 13:28:42.673463000 EST
    [Time shift for this packet: 0.000000000 seconds]
    Epoch Time: 1360866522.673463000 seconds
    [Time delta from previous captured frame: 0.101030000 seconds]
    [Time delta from previous displayed frame: 0.101030000 seconds]
    [Time since reference or first frame: 4.328844000 seconds]
    Frame Number: 41
    Frame Length: 42 bytes (336 bits)
    Capture Length: 42 bytes (336 bits)
    [Frame is marked: False]
    [Frame is ignored: False]
    [Protocols in frame: ppi:user_dlt:btle:btcommon]
PPI version 0, 24 bytes
    Version: 0
    Flags: 0x00
        .... ...0 = Alignment: Not aligned
        0000 000. = Reserved: 0x00
    Header length: 24
    DLT: 147
    Reserved: 36750c0000620900d5ca7703e9dce232
DLT: 147, Payload: btle (Bluetooth Low Energy Link Layer)
Bluetooth Low Energy Link Layer
    Access Address: 0x8e89bed6
    Packet Header: 0x0900 (PDU Type: ADV_IND, TxAdd=false, RxAdd=false)
        ..00 .... = RFU: 0
        .0.. .... = Randomized Tx Address: False
        0... .... = Reserved: False
        .... 0000 = PDU Type: ADV_IND (0x00)
        00.. .... = RFU: 0
        ..00 1001 = Length: 9
    Advertising Address: TexasIns_6e:dd:e8 (78:c5:e5:6e:dd:e8)
    Advertising Data
        Flags
            Length: 2
            Type: Flags (0x01)
            000. .... = Reserved: 0x00
            ...0 .... = Simultaneous LE and BR/EDR to Same Device Capable (Host): false (0x00)
            .... 0... = Simultaneous LE and BR/EDR to Same Device Capable (Controller): false (0x00)
            .... .1.. = BR/EDR Not Supported: true (0x01)
            .... ..0. = LE General Discoverable Mode: false (0x00)
            .... ...1 = LE Limited Discoverable Mode: true (0x01)
    CRC: 0x633c69
        [Expert Info (Chat/Checksum): Correct CRC]
            [Correct CRC]
            [Severity level: Chat]
            [Group: Checksum]

0000  00 00 18 00 93 00 00 00 36 75 0c 00 00 62 09 00   ........6u...b..
0010  d5 ca 77 03 e9 dc e2 32 d6 be 89 8e 00 09 e8 dd   ..w....2........
0020  6e e5 c5 78 02 01 05 c6 3c 96                     n..x....<.

Frame 42: 42 bytes on wire (336 bits), 42 bytes captured (336 bits)
    Encapsulation type: Per-Packet Information header (97)
    Arrival Time: Feb 14, 2013 13:28:42.888525000 EST
    [Time shift for this packet: 0.000000000 seconds]
    Epoch Time: 1360866522.888525000 seconds
    [Time delta from previous captured frame: 0.215062000 seconds]
    [Time delta from previous displayed frame: 0.215062000 seconds]
    [Time since reference or first frame: 4.543906000 seconds]
    Frame Number: 42
    Frame Length: 42 bytes (336 bits)
    Capture Length: 42 bytes (336 bits)
    [Frame is marked: False]
    [Frame is ignored: False]
    [Protocols in frame: ppi:user_dlt:btle:btcommon]
PPI version 0, 24 bytes
    Version: 0
    Flags: 0x00
        .... ...0 = Alignment: Not aligned
        0000 000. = Reserved: 0x00
    Header length: 24
    DLT: 147
    Reserved: 36750c0000620900c0929803e9dce12e
DLT: 147, Payload: btle (Bluetooth Low Energy Link Layer)
Bluetooth Low Energy Link Layer
    Access Address: 0x8e89bed6
    Packet Header: 0x0900 (PDU Type: ADV_IND, TxAdd=false, RxAdd=false)
        ..00 .... = RFU: 0
        .0.. .... = Randomized Tx Address: False
        0... .... = Reserved: False
        .... 0000 = PDU Type: ADV_IND (0x00)
        00.. .... = RFU: 0
        ..00 1001 = Length: 9
    Advertising Address: TexasIns_6e:dd:e8 (78:c5:e5:6e:dd:e8)
    Advertising Data
        Flags
            Length: 2
            Type: Flags (0x01)
            000. .... = Reserved: 0x00
            ...0 .... = Simultaneous LE and BR/EDR to Same Device Capable (Host): false (0x00)
            .... 0... = Simultaneous LE and BR/EDR to Same Device Capable (Controller): false (0x00)
            .... .1.. = BR/EDR Not Supported: true (0x01)
            .... ..0. = LE General Discoverable Mode: false (0x00)
            .... ...1 = LE Limited Discoverable Mode: true (0x01)
    CRC: 0x633c69
        [Expert Info (Chat/Checksum): Correct CRC]
            [Correct CRC]
            [Severity level: Chat]
            [Group: Checksum]

0000  00 00 18 00 93 00 00 00 36 75 0c 00 00 62 09 00   ........6u...b..
0010  c0 92 98 03 e9 dc e1 2e d6 be 89 8e 00 09 e8 dd   ................
0020  6e e5 c5 78 02 01 05 c6 3c 96                     n..x....<.

Frame 43: 42 bytes on wire (336 bits), 42 bytes captured (336 bits)
    Encapsulation type: Per-Packet Information header (97)
    Arrival Time: Feb 14, 2013 13:28:42.998317000 EST
    [Time shift for this packet: 0.000000000 seconds]
    Epoch Time: 1360866522.998317000 seconds
    [Time delta from previous captured frame: 0.109792000 seconds]
    [Time delta from previous displayed frame: 0.109792000 seconds]
    [Time since reference or first frame: 4.653698000 seconds]
    Frame Number: 43
    Frame Length: 42 bytes (336 bits)
    Capture Length: 42 bytes (336 bits)
    [Frame is marked: False]
    [Frame is ignored: False]
    [Protocols in frame: ppi:user_dlt:btle:btcommon]
PPI version 0, 24 bytes
    Version: 0
    Flags: 0x00
        .... ...0 = Alignment: Not aligned
        0000 000. = Reserved: 0x00
    Header length: 24
    DLT: 147
    Reserved: 36750c0000620900875ba903e5dbe135
DLT: 147, Payload: btle (Bluetooth Low Energy Link Layer)
Bluetooth Low Energy Link Layer
    Access Address: 0x8e89bed6
    Packet Header: 0x0900 (PDU Type: ADV_IND, TxAdd=false, RxAdd=false)
        ..00 .... = RFU: 0
        .0.. .... = Randomized Tx Address: False
        0... .... = Reserved: False
        .... 0000 = PDU Type: ADV_IND (0x00)
        00.. .... = RFU: 0
        ..00 1001 = Length: 9
    Advertising Address: TexasIns_6e:dd:e8 (78:c5:e5:6e:dd:e8)
    Advertising Data
        Flags
            Length: 2
            Type: Flags (0x01)
            000. .... = Reserved: 0x00
            ...0 .... = Simultaneous LE and BR/EDR to Same Device Capable (Host): false (0x00)
            .... 0... = Simultaneous LE and BR/EDR to Same Device Capable (Controller): false (0x00)
            .... .1.. = BR/EDR Not Supported: true (0x01)
            .... ..0. = LE General Discoverable Mode: false (0x00)
            .... ...1 = LE Limited Discoverable Mode: true (0x01)
    CRC: 0x633c69
        [Expert Info (Chat/Checksum): Correct CRC]
            [Correct CRC]
            [Severity level: Chat]
            [Group: Checksum]

0000  00 00 18 00 93 00 00 00 36 75 0c 00 00 62 09 00   ........6u...b..
0010  87 5b a9 03 e5 db e1 35 d6 be 89 8e 00 09 e8 dd   .[.....5........
0020  6e e5 c5 78 02 01 05 c6 3c 96                     n..x....<.

Frame 44: 42 bytes on wire (336 bits), 42 bytes captured (336 bits)
    Encapsulation type: Per-Packet Information header (97)
    Arrival Time: Feb 14, 2013 13:28:43.104520000 EST
    [Time shift for this packet: 0.000000000 seconds]
    Epoch Time: 1360866523.104520000 seconds
    [Time delta from previous captured frame: 0.106203000 seconds]
    [Time delta from previous displayed frame: 0.106203000 seconds]
    [Time since reference or first frame: 4.759901000 seconds]
    Frame Number: 44
    Frame Length: 42 bytes (336 bits)
    Capture Length: 42 bytes (336 bits)
    [Frame is marked: False]
    [Frame is ignored: False]
    [Protocols in frame: ppi:user_dlt:btle:btcommon]
PPI version 0, 24 bytes
    Version: 0
    Flags: 0x00
        .... ...0 = Alignment: Not aligned
        0000 000. = Reserved: 0x00
    Header length: 24
    DLT: 147
    Reserved: 36750c00006209009198b903e5dce13c
DLT: 147, Payload: btle (Bluetooth Low Energy Link Layer)
Bluetooth Low Energy Link Layer
    Access Address: 0x8e89bed6
    Packet Header: 0x0900 (PDU Type: ADV_IND, TxAdd=false, RxAdd=false)
        ..00 .... = RFU: 0
        .0.. .... = Randomized Tx Address: False
        0... .... = Reserved: False
        .... 0000 = PDU Type: ADV_IND (0x00)
        00.. .... = RFU: 0
        ..00 1001 = Length: 9
    Advertising Address: TexasIns_6e:dd:e8 (78:c5:e5:6e:dd:e8)
    Advertising Data
        Flags
            Length: 2
            Type: Flags (0x01)
            000. .... = Reserved: 0x00
            ...0 .... = Simultaneous LE and BR/EDR to Same Device Capable (Host): false (0x00)
            .... 0... = Simultaneous LE and BR/EDR to Same Device Capable (Controller): false (0x00)
            .... .1.. = BR/EDR Not Supported: true (0x01)
            .... ..0. = LE General Discoverable Mode: false (0x00)
            .... ...1 = LE Limited Discoverable Mode: true (0x01)
    CRC: 0x633c69
        [Expert Info (Chat/Checksum): Correct CRC]
            [Correct CRC]
            [Severity level: Chat]
            [Group: Checksum]

0000  00 00 18 00 93 00 00 00 36 75 0c 00 00 62 09 00   ........6u...b..
0010  91 98 b9 03 e5 dc e1 3c d6 be 89 8e 00 09 e8 dd   .......<........
0020  6e e5 c5 78 02 01 05 c6 3c 96                     n..x....<.

Frame 45: 42 bytes on wire (336 bits), 42 bytes captured (336 bits)
    Encapsulation type: Per-Packet Information header (97)
    Arrival Time: Feb 14, 2013 13:28:43.206569000 EST
    [Time shift for this packet: 0.000000000 seconds]
    Epoch Time: 1360866523.206569000 seconds
    [Time delta from previous captured frame: 0.102049000 seconds]
    [Time delta from previous displayed frame: 0.102049000 seconds]
